:020000040800F2
:1000000000000320A9210008BD200008CB20000823
:10001000D1200008D7200008DD20000800000000E3
:10002000000000000000000000000000E3200008C5
:10003000F120000800000000FF2000080D2100084A
:10004000F9210008F9210008F9210008F921000828
:10005000F9210008F9210008F9210008F921000818
:10006000F9210008F9210008F9210008F921000808
:10007000F9210008F9210008F9210008F9210008F8
:10008000F9210008F9210008F9210008F9210008E8
:10009000F9210008F9210008F9210008F9210008D8
:1000A000F9210008F9210008F9210008F9210008C8
:1000B000F921000819210008F9210008F921000898
:1000C000F9210008F9210008F9210008F9210008A8
:1000D000F9210008F9210008F9210008F921000898
:1000E0002D210008F9210008F9210008F921000854
:1000F000F9210008F9210008F9210008F921000878
:10010000F9210008F9210008F9210008F921000867
:10011000F9210008F9210008F9210008F921000857
:10012000F9210008F9210008F9210008F921000847
:10013000F9210008F9210008F9210008F921000837
:10014000F9210008F9210008F9210008F921000827
:10015000F9210008F9210008F9210008F921000817
:10016000F9210008F9210008F9210008F921000807
:10017000F9210008F9210008F92100080000000019
:10018000F9210008F9210008F9210008F9210008E7
:10019000F9210008F9210008F9210008F9210008D7
:0C01A000F9210008F9210008F9210008ED
:1001AC0010B5054C237833B9044B13B10448AFF3A5
:1001BC0000800123237010BD1000002000000000FF
:1001CC005422000808B5034B1BB103490348AFF395
:1001DC00008008BD0000000014000020542200081C
:1001EC0053B94AB9002908BF00281CBF4FF0FF3192
:1001FC004FF0FF3000F07AB9ADF1080C6DE904CE88
:10020C0000F006F8DDF804E0DDE9022304B07047E5
:10021C002DE9F0478C460D460446089E002B51D123
:10022C008A4217466DD9B2FA82FEBEF1000F0BD08E
:10023C00CEF1200C01FA0EF520FA0CFC02FA0EF7A6
:10024C004CEA050C00FA0EF44FEA174A250CBCFBDD
:10025C00FAF81FFA87F90AFB18CC45EA0C4508FB9B
:10026C0009F3AB420AD9ED1908F1FF3280F0238172
:10027C00AB4240F22081A8F102083D44ED1AA4B231
:10028C00B5FBFAF00AFB105544EA054400FB09F9EA
:10029C00A14509D9E41900F1FF3380F00A81A14589
:1002AC0040F2078102383C44A4EB090440EA0840C0
:1002BC000021002E61D024FA0EF400233460736008
:1002CC00BDE8F0878B4207D9002E54D0002186E878
:1002DC0021000846BDE8F087B3FA83F1002940F00D
:1002EC008E80AB4202D3824200F2FA80841A65EB14
:1002FC0003050120AC46002E3FD086E81010BDE867
:10030C00F08712B90127B7FBF2F7B7FA87FEBEF1F7
:10031C00000F34D1EB1B3A0C1FFA87FC0121B3FB05
:10032C00F2F8250C02FB183345EA03450CFB08F3E5
:10033C00AB4207D9ED1908F1FF3002D2AB4200F203
:10034C00D1808046ED1AA3B2B5FBF2F002FB10553A
:10035C0043EA05440CFB00FCA44507D9E41900F161
:10036C00FF3302D2A44500F2B8801846A4EB0C046B
:10037C0040EA08409DE731463046BDE8F087CEF1B3
:10038C00200405FA0EF307FA0EF720FA04F83A0CDB
:10039C0025FA04F448EA0308B4FBF2F14FEA1845D5
:1003AC0002FB11441FFA87FC45EA044501FB0CF3E0
:1003BC00AB4200FA0EF409D9ED1901F1FF3080F0CF
:1003CC008A80AB4240F2878002393D44EB1A1FFA17
:1003DC0088F5B3FBF2F002FB103345EA034500FB52
:1003EC000CF3AB4207D9ED1900F1FF386FD2AB42D9
:1003FC006DD902383D44EB1A40EA01418FE7C1F157
:10040C00200722FA07F88B4005FA01F448EA0303A7
:10041C0020FA07FE4FEA134CFD404EEA040EB5FBE2
:10042C00FCF94FEA1E440CFB19551FFA83F844EAF9
:10043C00054509FB08F4AC4202FA01F200FA01FA94
:10044C0008D9ED1809F1FF3043D2AC4241D9A9F1DA
:10045C0002091D442D1B1FFA8EFEB5FBFCF00CFB94
:10046C0010554EEA054400FB08F8A04507D9E418DE
:10047C0000F1FF3529D2A04527D902381C4440EAA7
:10048C000940A4EB0804A0FB02894C45C6464D4626
:10049C0015D312D056B1BAEB0E0364EB050404FA73
:1004AC0007F7CB401F43CC40376074600021BDE898
:1004BC00F0871846F8E69046E0E6C245EAD2B8EB7B
:1004CC00020E69EB03050138E4E72846D7E74046FE
:1004DC0091E78146BEE7014678E702383C4445E7A0
:1004EC00084608E7A8F102083D442BE7704700BF17
:1004FC0080B500AF0E4A0E4B1B6843F400731360BB
:10050C000B4A0B4B1B6843F480631360084A084B7F
:10051C001B6843F480731360032000F029F900205A
:10052C0000F008F801F074FD0023184680BD00BFF0
:10053C00003C024080B582B000AF7860124B1A6864
:10054C00124B1B7819464FF47A73B3FBF1F3B2FBE1
:10055C00F3F3184600F041F90346002B01D00123B8
:10056C000EE07B680F2B0AD8002279684FF0FF3021
:10057C0000F009F9064A7B681360002300E00123B0
:10058C0018460837BD4680BD0C0000200400002032
:10059C000000002080B400AF064B1B781A46064BB7
:1005AC001B681344044A136000BFBD465DF8047B0E
:1005BC00704700BF040000202C00002080B400AF66
:1005CC00034B1B681846BD465DF8047B704700BFA3
:1005DC002C00002080B485B000AF78607B6803F0FD
:1005EC000703FB600C4BDB68BB60BA684FF6FF037C
:1005FC001340BB60FB681A02BB68134343F0BF6334
:10060C0043F40033BB60044ABB68D36000BF1437AB
:10061C00BD465DF8047B704700ED00E080B400AF90
:10062C00044BDB681B0A03F007031846BD465DF854
:10063C00047B704700ED00E080B483B000AF03464C
:10064C00FB7197F90730002B0BDB094997F9073041
:10065C005B09FA7902F01F02012000FA02F241F85C
:10066C00232000BF0C37BD465DF8047B704700BFEC
:10067C0000E100E080B483B000AF03463960FB7149
:10068C0097F90730002B0ADB0D4997F907303A68C8
:10069C00D2B21201D2B20B4483F800230AE009490A
:1006AC00FB7903F00F03043B3A68D2B21201D2B2C9
:1006BC000B441A7600BF0C37BD465DF8047B7047BF
:1006CC0000E100E000ED00E080B489B000AFF8601C
:1006DC00B9607A60FB6803F00703FB61FB69C3F147
:1006EC000703042B28BF0423BB61FB690433062BCF
:1006FC0002D9FB69033B00E000237B610122BB694B
:10070C0002FA03F35A1EBB681A407B699A40012116
:10071C007B6901FA03F3591E7B680B40134318469F
:10072C002437BD465DF8047B7047000080B582B06D
:10073C0000AF78607B68013BB3F1807F01D301236C
:10074C000FE00A4A7B68013B53600F214FF0FF30EA
:10075C00FFF790FF054B00229A60044B07221A60AA
:10076C00002318460837BD4680BD00BF10E000E0EE
:10077C0080B582B000AF78607868FFF72BFF00BFC0
:10078C000837BD4680BD80B586B000AF0346B96062
:10079C007A60FB7300237B61FFF740FF78617A6816
:1007AC00B9687869FFF790FF024697F90F30114648
:1007BC001846FFF75FFF00BF1837BD4680BD80B5F8
:1007CC0082B000AF0346FB7197F907301846FFF76C
:1007DC0033FF00BF0837BD4680BD80B582B000AF87
:1007EC0078607868FFF7A2FF034618460837BD46C5
:1007FC0080BD000080B489B000AF78603960002300
:10080C007B6100233B610023BB610023FB6177E12B
:10081C000122FB6902FA03F37B613B681A687B696E
:10082C0013403B613A697B699A4240F066813B68B0
:10083C005B68022B03D03B685B68122B23D1FB69EE
:10084C00DA087B68083253F82230BB61FB6903F08D
:10085C0007039B000F2202FA03F3DB43BA69134030
:10086C00BB613B681A69FB6903F007039B0002FA42
:10087C0003F3BA691343BB61FB69DA087B6808327E
:10088C00B96943F822107B681B68BB61FB695B008C
:10089C00032202FA03F3DB43BA691340BB613B68E2
:1008AC005B6803F00302FB695B0002FA03F3BA69AD
:1008BC001343BB617B68BA691A603B685B68012BA8
:1008CC000BD03B685B68022B07D03B685B68112B35
:1008DC0003D03B685B68122B30D17B689B68BB6193
:1008EC00FB695B00032202FA03F3DB43BA69134092
:1008FC00BB613B68DA68FB695B0002FA03F3BA6917
:10090C001343BB617B68BA699A607B685B68BB61A7
:10091C000122FB6902FA03F3DB43BA691340BB61A2
:10092C003B685B681B0903F00102FB6902FA03F3E5
:10093C00BA691343BB617B68BA695A607B68DB6830
:10094C00BB61FB695B00032202FA03F3DB43BA6968
:10095C001340BB613B689A68FB695B0002FA03F3C6
:10096C00BA691343BB617B68BA69DA603B685B6840
:10097C0003F08053002B00F0C0800023FB60654A1D
:10098C00644B5B6C43F480435364624B5B6C03F4C9
:10099C008043FB60FB68604AFB699B08023352F89A
:1009AC002330BB61FB6903F003039B000F2202FAA7
:1009BC0003F3DB43BA691340BB617B68574A93422C
:1009CC0037D07B68564A934231D07B68554A934264
:1009DC002BD07B68544A934225D07B68534A934270
:1009EC001FD07B68524A934219D07B68514A93427C
:1009FC0013D07B68504A93420DD07B684F4A934288
:100A0C0007D07B684E4A934201D1092312E00A2396
:100A1C0010E008230EE007230CE006230AE0052370
:100A2C0008E0042306E0032304E0022302E0012390
:100A3C0000E00023FA6902F0030292009340BA69C5
:100A4C001343BB613449FB699B080233BA6941F813
:100A5C0023203C4B1B68BB613B69DB43BA691340E9
:100A6C00BB613B685B6803F48033002B03D0BA692D
:100A7C003B691343BB61334ABB691360314B5B6801
:100A8C00BB613B69DB43BA691340BB613B685B6884
:100A9C0003F40033002B03D0BA693B691343BB61E9
:100AAC00284ABB695360274B9B68BB613B69DB439E
:100ABC00BA691340BB613B685B6803F48013002B7D
:100ACC0003D0BA693B691343BB611E4ABB6993608F
:100ADC001C4BDB68BB613B69DB43BA691340BB61F0
:100AEC003B685B6803F40013002B03D0BA693B69C5
:100AFC001343BB61134ABB69D360FB690133FB61D0
:100B0C00FB690F2B7FF684AE00BF2437BD465DF822
:100B1C00047B70470038024000380140000002405E
:100B2C000004024000080240000C02400010024089
:100B3C000014024000180240001C02400020024039
:100B4C0000240240003C014080B483B000AF7860C8
:100B5C000B467B8013467B707B78002B03D07A8806
:100B6C007B689A6103E07B881A047B689A6100BFFA
:100B7C000C37BD465DF8047B704780B483B000AF82
:100B8C0078600B467B807B685A697B881A407B882F
:100B9C009A4204D17B881A047B689A6102E07A88B5
:100BAC007B689A6100BF0C37BD465DF8047B7047CB
:100BBC0080B582B000AF0346FB80084B5A69FB88B6
:100BCC001340002B06D0054AFB885361FB8818465E
:100BDC0000F0CCFF00BF0837BD4680BD003C014093
:100BEC0080B586B000AF78607B68002B01D1012303
:100BFC002DE27B681B6803F00103002B75D0A34B1F
:100C0C009B6803F00C03042B0CD0A04B9B6803F0E7
:100C1C000C03082B12D19D4B5B6803F48003B3F5D6
:100C2C00800F0BD1994B1B6803F40033002B5BD066
:100C3C007B685B68002B57D1012308E27B685B68FB
:100C4C00B3F5803F06D1914A904B1B6843F4803337
:100C5C0013601DE07B685B68B3F5A02F0CD18B4A49
:100C6C008A4B1B6843F480231360884A874B1B68AC
:100C7C0043F4803313600BE0844A844B1B6823F4E9
:100C8C0080331360814A814B1B6823F480231360EB
:100C9C007B685B68002B13D0FFF790FC386108E091
:100CAC00FFF78CFC02463B69D31A642B01D9032352
:100CBC00CDE1764B1B6803F40033002BF0D014E02D
:100CCC00FFF77CFC386108E0FFF778FC02463B69D3
:100CDC00D31A642B01D90323B9E16C4B1B6803F4C1
:100CEC000033002BF0D100E000BF7B681B6803F0E1
:100CFC000203002B63D0654B9B6803F00C03002BA5
:100D0C000BD0624B9B6803F00C03082B1CD15F4B80
:100D1C005B6803F48003002B16D15C4B1B6803F05B
:100D2C000203002B05D07B68DB68012B01D001236B
:100D3C008DE15649554B1B6823F0F8027B681B6903
:100D4C00DB0013430B603AE07B68DB68002B20D0A0
:100D5C004F4B01221A60FFF731FC386108E0FFF7B6
:100D6C002DFC02463B69D31A022B01D903236EE1F9
:100D7C00464B1B6803F00203002BF0D04349434B56
:100D8C001B6823F0F8027B681B69DB0013430B60C4
:100D9C0015E03F4B00221A60FFF710FC386108E0A9
:100DAC00FFF70CFC02463B69D31A022B01D9032333
:100DBC004DE1364B1B6803F00203002BF0D17B682E
:100DCC001B6803F00803002B30D07B685B69002B99
:100DDC0016D0304B01221A60FFF7F0FB386108E0A7
:100DEC00FFF7ECFB02463B69D31A022B01D9032314
:100DFC002DE1264B5B6F03F00203002BF0D015E0C6
:100E0C00244B00221A60FFF7D9FB386108E0FFF78A
:100E1C00D5FB02463B69D31A022B01D9032316E1F9
:100E2C001A4B5B6F03F00203002BF0D17B681B683D
:100E3C0003F00403002B00F0A0800023FB75134B80
:100E4C001B6C03F08053002B0FD10023FB600F4A67
:100E5C000E4B1B6C43F0805313640C4B1B6C03F058
:100E6C008053FB60FB680123FB750B4B1B6803F481
:100E7C008073002B21D1084A074B1B6843F4807305
:100E8C001360FFF79BFB386111E000BF0038024094
:100E9C0000004742800E474200700040FFF78EFB77
:100EAC0002463B69D31A022B01D90323CFE06A4BCC
:100EBC001B6803F48073002BF0D07B689B68012BBC
:100ECC0006D1664A654B1B6F43F0010313671CE0A8
:100EDC007B689B68052B0CD1604A604B1B6F43F001
:100EEC00040313675D4A5D4B1B6F43F001031367EB
:100EFC000BE05A4A594B1B6F23F001031367574AF7
:100F0C00564B1B6F23F0040313677B689B68002B05
:100F1C0015D0FFF753FB38610AE0FFF74FFB024691
:100F2C003B69D31A41F28832934201D903238EE0F4
:100F3C004A4B1B6F03F00203002BEED014E0FFF7BB
:100F4C003DFB38610AE0FFF739FB02463B69D31AD7
:100F5C0041F28832934201D9032378E03F4B1B6F57
:100F6C0003F00203002BEED1FB7D012B05D13B4A94
:100F7C003A4B1B6C23F0805313647B689B69002BEA
:100F8C0064D0364B9B6803F00C03082B5CD07B6859
:100F9C009B69022B41D1324B00221A60FFF70EFBEA
:100FAC00386108E0FFF70AFB02463B69D31A022BB3
:100FBC0001D903234BE0294B1B6803F00073002B72
:100FCC00F0D126497B68DA697B681B6A1A437B6817
:100FDC005B6A9B011A437B689B6A5B08013B1B04A1
:100FEC001A437B68DB6A1B0613434B601C4B0122C4
:100FFC001A60FFF7E3FA386108E0FFF7DFFA024600
:10100C003B69D31A022B01D9032320E0134B1B6835
:10101C0003F00073002BF0D018E0114B00221A6083
:10102C00FFF7CCFA386108E0FFF7C8FA02463B69D3
:10103C00D31A022B01D9032309E0084B1B6803F0D8
:10104C000073002BF0D101E0012300E000231846CF
:10105C001837BD4680BD00BF00700040003802400C
:10106C006000474280B584B000AF786039607B681F
:10107C00002B01D10123CAE0674B1B6803F00F0260
:10108C003B689A420CD2644B3A68D2B21A70624BEB
:10109C001B6803F00F023B689A4201D00123B6E0B3
:1010AC007B681B6803F00203002B20D07B681B6855
:1010BC0003F00403002B05D0584A584B9B6843F4AB
:1010CC00E05393607B681B6803F00803002B05D08A
:1010DC00524A524B9B6843F4604393604F494F4BC9
:1010EC009B6823F0F0027B689B6813438B607B68E2
:1010FC001B6803F00103002B44D07B685B68012B59
:10110C0007D1464B1B6803F40033002B19D1012384
:10111C007DE07B685B68022B03D07B685B68032BEC
:10112C0007D13E4B1B6803F00073002B09D1012340
:10113C006DE03A4B1B6803F00203002B01D1012335
:10114C0065E03649354B9B6823F003027B685B688E
:10115C0013438B60FFF732FAF8600AE0FFF72EFAC0
:10116C000246FB68D31A41F28832934201D9032319
:10117C004DE02A4B9B6803F00C027B685B689B007C
:10118C009A42EBD1244B1B6803F00F023B689A4246
:10119C000CD9214B3A68D2B21A701F4B1B6803F062
:1011AC000F023B689A4201D0012330E07B681B6838
:1011BC0003F00403002B08D01849184B9B6823F448
:1011CC00E0527B68DB6813438B607B681B6803F021
:1011DC000803002B09D01149104B9B6823F4604283
:1011EC007B681B69DB0013438B6000F01DF8014624
:1011FC000A4B9B681B0903F00F03094AD35C21FAC5
:10120C0003F3084A13600020FFF794F900231846F3
:10121C001037BD4680BD00BF003C02400038024084
:10122C006C2200080C0000202DE9F04F8FB000AFAD
:10123C000023FB6200237B630023BB6200233B6320
:10124C00624B9B6803F00C03042B07D0082B08D0CF
:10125C00002B40F0B2805E4B3B63B1E05D4B3B63D7
:10126C00AEE05A4B5B6803F03F03FB62574B5B6885
:10127C0003F48003002B4ED0544B5B689B094FF05A
:10128C00000440F2FF114FF0000201EA030102EAF0
:10129C0004020B46144660017862786A40EAD36017
:1012AC0078625B013B62D7E908345B1A64EB020499
:1012BC004FEA841949EA93694FEA8318B8EB03089B
:1012CC0069EB04094FEAC903FB61FB6943EA5873F4
:1012DC00FB614FEAC803BB61D7E9068918EB01082B
:1012EC0049EB02094FEA49237B617B6943EAD853F6
:1012FC007B614FEA48233B61D7E904894046494664
:10130C00FB6A4FF000041A462346FEF769FF0346BA
:10131C000C467B6343E02D4B5B689B094FF000044C
:10132C0040F2FF114FF0000201EA030102EA04024D
:10133C000B4614466001F860F86840EAD360F86028
:10134C005B01BB60D7E902345B1A64EB0204A601B3
:10135C0046EA93669D01ED1A66EB0406F3007B608A
:10136C007B6843EA55737B60EB003B6097E8600059
:10137C006D1846EB02064FEA862B4BEA955B4FEA5B
:10138C00852A55465E4628463146FB6A4FF00004D6
:10139C001A462346FEF724FF03460C467B630B4B91
:1013AC005B681B0C03F0030301335B00BB627A6BBD
:1013BC00BB6AB2FBF3F33B6302E0054B3B6300BF3C
:1013CC003B6B18463C37BD46BDE8F08F00380240F9
:1013DC000024F40000127A0080B582B000AF78606F
:1013EC007B68002B01D101231DE07B6893F83D3015
:1013FC00DBB2002B06D17B68002283F83C20786896
:10140C0000F02EFE7B68022283F83D207B681A6870
:10141C007B6804331946104600F014FA7B680122ED
:10142C0083F83D20002318460837BD4680BD80B4A4
:10143C0085B000AF78607B681B687A681268D268E8
:10144C0042F00102DA607B681B689B6803F00703BB
:10145C00FB60FB68062B07D07B681B687A681268F8
:10146C00126842F001021A60002318461437BD4678
:10147C005DF8047B704780B582B000AF78607B6804
:10148C001B681B6903F00203022B22D17B681B68CB
:10149C00DB6803F00203022B1BD17B681B686FF027
:1014AC0002021A617B6801221A777B681B689B69B0
:1014BC0003F00303002B03D0786800F0A5F905E0D6
:1014CC00786800F097F9786800F0A8F97B6800223A
:1014DC001A777B681B681B6903F00403042B22D169
:1014EC007B681B68DB6803F00403042B1BD17B684F
:1014FC001B686FF004021A617B6802221A777B6802
:10150C001B689B6903F44073002B03D0786800F0D0
:10151C007BF905E0786800F06DF9786800F07EF9E9
:10152C007B6800221A777B681B681B6903F0080331
:10153C00082B22D17B681B68DB6803F00803082B9F
:10154C001BD17B681B686FF008021A617B68042250
:10155C001A777B681B68DB6903F00303002B03D04D
:10156C00786800F051F905E0786800F043F9786884
:10157C0000F054F97B6800221A777B681B681B69A2
:10158C0003F01003102B22D17B681B68DB6803F07F
:10159C001003102B1BD17B681B686FF010021A61B3
:1015AC007B6808221A777B681B68DB6903F440733D
:1015BC00002B03D0786800F027F905E0786800F07C
:1015CC0019F9786800F02AF97B6800221A777B6891
:1015DC001B681B6903F00103012B0ED17B681B6890
:1015EC00DB6803F00103012B07D17B681B686FF0EC
:1015FC0001021A61786800F0D5FA7B681B681B69D8
:10160C0003F08003802B0ED17B681B68DB6803F032
:10161C008003802B07D17B681B686FF080021A61F6
:10162C00786800F098FA7B681B681B6903F040032C
:10163C00402B0ED17B681B68DB6803F04003402B0A
:10164C0007D17B681B686FF040021A61786800F064
:10165C00EFF87B681B681B6903F02003202B0ED16D
:10166C007B681B68DB6803F02003202B07D17B68A9
:10167C001B686FF020021A61786800F062FA00BFF4
:10168C000837BD4680BD80B584B000AF7860396046
:10169C007B6893F83C30012B01D10223A6E07B68D8
:1016AC00012283F83C207B68022283F83D207B6872
:1016BC001B689B68FB60FB6823F07703FB60FB688F
:1016CC0023F47F43FB607B681B68FA689A603B6875
:1016DC001B68402B67D0402B0BD8102B73D0102BD2
:1016EC0002D8002B6FD078E0202B6CD0302B6AD036
:1016FC0073E0702B0DD0702B04D8502B33D0602B93
:10170C0041D06AE0B3F5805F66D0B3F5005F17D0C7
:10171C0063E07B6818683B6899683B685A683B686B
:10172C00DB6800F0A9F97B681B689B68FB60FB68B1
:10173C0043F07703FB607B681B68FA689A604CE0A7
:10174C007B6818683B6899683B685A683B68DB683B
:10175C0000F092F97B681B687A681268926842F410
:10176C0080429A6039E07B6818683B6859683B682E
:10177C00DB681A4600F006F97B681B685021184696
:10178C0000F05FF929E07B6818683B6859683B6892
:10179C00DB681A4600F025F97B681B686021184647
:1017AC0000F04FF919E07B6818683B6859683B6892
:1017BC00DB681A4600F0E6F87B681B684021184687
:1017CC0000F03FF909E07B681A683B681B68194612
:1017DC00104600F036F900E000BF7B68012283F868
:1017EC003D207B68002283F83C20002318461037EC
:1017FC00BD4680BD80B483B000AF786000BF0C37AD
:10180C00BD465DF8047B704780B483B000AF786050
:10181C0000BF0C37BD465DF8047B704780B483B0C5
:10182C0000AF786000BF0C37BD465DF8047B704795
:10183C0080B483B000AF786000BF0C37BD465DF854
:10184C00047B704780B485B000AF786039607B68EA
:10185C001B68FB607B68404A934213D07B68B3F1F2
:10186C00804F0FD07B683D4A93420BD07B683C4A3B
:10187C00934207D07B683B4A934203D07B683A4A39
:10188C00934208D1FB6823F07003FB603B685B68F4
:10189C00FA681343FB607B682F4A93422BD07B681A
:1018AC00B3F1804F27D07B682C4A934223D07B68BE
:1018BC002B4A93421FD07B682A4A93421BD07B68E9
:1018CC00294A934217D07B68284A934213D07B68ED
:1018DC00274A93420FD07B68264A93420BD07B68F1
:1018EC00254A934207D07B68244A934203D07B68F5
:1018FC00234A934208D1FB6823F44073FB603B6896
:10190C00DB68FA681343FB60FB6823F080023B68DA
:10191C005B691343FB607B68FA681A603B689A68E2
:10192C007B68DA623B681A687B689A627B680A4A51
:10193C00934203D07B680C4A934203D13B681A69EB
:10194C007B681A637B6801225A6100BF1437BD465D
:10195C005DF8047B704700BF0000014000040040AC
:10196C0000080040000C0040000401400040014011
:10197C00004401400048014000180040001C004099
:10198C000020004080B487B000AFF860B9607A6086
:10199C00FB681B6A7B61FB681B6A23F00102FB6816
:1019AC001A62FB689B693B613B6923F0F0033B6166
:1019BC007B681B013A6913433B617B6923F00A0383
:1019CC007B617A69BB6813437B61FB683A699A61F6
:1019DC00FB687A691A6200BF1C37BD465DF8047B50
:1019EC00704780B487B000AFF860B9607A60FB686C
:1019FC001B6A23F01002FB681A62FB689B697B610F
:101A0C00FB681B6A3B617B6923F470437B617B68D9
:101A1C001B037A6913437B613B6923F0A0033B6191
:101A2C00BB681B013A6913433B61FB687A699A6195
:101A3C00FB683A691A6200BF1C37BD465DF8047B2F
:101A4C00704780B485B000AF786039607B689B6864
:101A5C00FB60FB6823F07003FB603A68FB68134380
:101A6C0043F00703FB607B68FA689A6000BF143789
:101A7C00BD465DF8047B704780B487B000AFF8605A
:101A8C00B9607A603B60FB689B687B617B6923F47F
:101A9C007F437B613B681A027B681A43BB68134324
:101AAC007A6913437B61FB687A699A6000BF1C37C3
:101ABC00BD465DF8047B704780B485B000AF78609C
:101ACC0039607B6893F83C30012B01D1022332E062
:101ADC007B68012283F83C207B68022283F83D203E
:101AEC007B681B685B68FB607B681B689B68BB60E2
:101AFC00FB6823F07003FB603B681B68FA681343B8
:101B0C00FB60BB6823F08003BB603B685B68BA6812
:101B1C001343BB607B681B68FA685A607B681B6860
:101B2C00BA689A607B68012283F83D207B680022AA
:101B3C0083F83C20002318461437BD465DF8047B1F
:101B4C00704780B483B000AF786000BF0C37BD46DF
:101B5C005DF8047B704780B483B000AF786000BF41
:101B6C000C37BD465DF8047B7047000080B483B031
:101B7C0000AF0346FB80FB88B3F5005F0AD1084B2E
:101B8C001B88002B03D1064B01221A8002E0044B68
:101B9C0000221A8000BF0C37BD465DF8047B7047ED
:101BAC000600002080B483B000AF7860044B0122A3
:101BBC001A8000BF0C37BD465DF8047B704700BF30
:101BCC000800002080B500AFFEF792FC00F034F85E
:101BDC0000F0EAF800F090F800F096F8002280216E
:101BEC001248FEF7B1FF124B1B88002B11D00022BC
:101BFC004FF480410D48FEF7A7FF0E4B1B88002BBE
:101C0C00F1D080210948FEF7B8FF0A4B00221A8058
:101C1C00E9E701224FF480410448FEF795FF0022CA
:101C2C0080210248FEF790FFDDE700BF0004024070
:101C3C00060000200800002080B594B000AF07F12A
:101C4C00200330220021184600F0F6FA07F10C03AD
:101C5C0000221A605A609A60DA601A610023BB6035
:101C6C00234A234B1B6C43F080531364204B1B6C97
:101C7C0003F08053BB60BB6800237B601D4A1D4B87
:101C8C001B6823F4404343F480431360194B1B68D7
:101C9C0003F440437B607B6802233B620123FB62BD
:101CAC0010233B630023BB6307F120031846FEF7A8
:101CBC0097FF0346002B01D000F0A2F90F23FB6025
:101CCC0000233B6100237B614FF48053BB610023F5
:101CDC00FB6107F10C0300211846FFF7C3F903461B
:101CEC00002B01D000F08CF900BF5037BD4680BDF1
:101CFC00003802400070004080B400AF00BFBD4609
:101D0C005DF8047B7047000080B586B000AF07F12A
:101D1C00080300221A605A609A60DA603B4600227F
:101D2C001A605A601E4B1F4A1A601D4B4FF6FF7209
:101D3C005A601B4B00229A60194BC822DA60184B70
:101D4C0000221A61164B00229A611548FFF744FBDA
:101D5C000346002B01D000F053F94FF48053BB60C5
:101D6C0007F1080319460E48FFF78DFC0346002BBC
:101D7C0001D000F045F900233B6000237B603B461B
:101D8C0019460748FFF798FE0346002B01D000F0D8
:101D9C0037F90348FFF74BFB00BF1837BD4680BD32
:101DAC00300000200004004080B58CB000AF07F17B
:101DBC001C0300221A605A609A60DA601A610023D0
:101DCC00BB61884A874B1B6B43F004031363854B41
:101DDC001B6B03F00403BB61BB6900237B61814A6D
:101DEC00804B1B6B43F0800313637E4B1B6B03F028
:101DFC0080037B617B6900233B617A4A794B1B6BC7
:101E0C0043F001031363774B1B6B03F001033B613E
:101E1C003B690023FB60734A724B1B6B43F002035C
:101E2C001363704B1B6B03F00203FB60FB68002316
:101E3C00BB606C4A6B4B1B6B43F008031363694B21
:101E4C001B6B03F00803BB60BB6800237B60654A17
:101E5C00644B1B6B43F040031363624B1B6B03F02F
:101E6C0040037B607B68002244F281015E48FEF7F0
:101E7C006BFE002240215D48FEF766FE4FF40053D6
:101E8C00FB615B4B3B6200237B6207F11C03194631
:101E9C005848FEF7AFFC3223FB6102233B62002360
:101EAC007B620323BB620B23FB6207F11C03194605
:101EBC005048FEF79FFC8623FB6102233B62002304
:101ECC007B620323BB620B23FB6207F11C031946E5
:101EDC004948FEF78FFC44F28103FB6101233B620E
:101EEC0000237B620023BB6207F11C0319463E48AA
:101EFC00FEF780FC4FF40053FB6102233B6200238E
:101F0C007B620323BB620B23FB6207F11C031946A4
:101F1C003548FEF76FFC4FF44073FB6102233B62C4
:101F2C0000237B620323BB620723FB6207F11C03C4
:101F3C0019463248FEF75EFC4023FB6101233B62ED
:101F4C0000237B620023BB6207F11C031946274860
:101F5C00FEF750FC8023FB6100233B6200237B6275
:101F6C0007F11C0319462148FEF744FC4FF4E853D3
:101F7C00FB6102233B6200237B620323BB620A23C7
:101F8C00FB6207F11C0319461B48FEF733FC4FF4A8
:101F9C000073FB6100233B6200237B6207F11C038F
:101FAC0019461548FEF726FC4FF42053FB6102231B
:101FBC003B6200237B620323BB620B23FB6207F1B2
:101FCC001C0319460948FEF715FC002200212820A5
:101FDC00FEF7D9FB2820FEF7F2FB00BF3037BD46D9
:101FEC0080BD00BF003802400004024000180240CF
:101FFC00000011100008024000000240000C0240DA
:10200C0080B400AF00BFBD465DF8047B7047000094
:10201C0080B483B000AF00237B60104A0F4B5B6C25
:10202C0043F4804353640D4B5B6C03F480437B603F
:10203C007B6800233B60094A084B1B6C43F08053C0
:10204C001364064B1B6C03F080533B603B6800BF72
:10205C000C37BD465DF8047B704700BF003802406A
:10206C0080B584B000AF78607B681B680E4A9342E1
:10207C0015D10023FB600D4A0C4B1B6C43F0020383
:10208C0013640A4B1B6C03F00203FB60FB68002219
:10209C0000211D20FEF777FB1D20FEF790FB00BFF3
:1020AC001037BD4680BD00BF000400400038024020
:1020BC0080B400AF00BFBD465DF8047B704780B4B0
:1020CC0000AFFEE780B400AFFEE780B400AFFEE7E0
:1020DC0080B400AFFEE780B400AF00BFBD465DF832
:1020EC00047B704780B400AF00BFBD465DF8047B35
:1020FC00704780B400AF00BFBD465DF8047B7047ED
:10210C0080B500AFFEF746FA00BF80BD80B500AFCA
:10211C000248FFF7B0F900BF80BD00BF30000020BF
:10212C0080B500AF4FF40050FEF742FD00BF80BDFC
:10213C0080B400AF164A164BD3F8883043F47003C2
:10214C00C2F88830134A134B1B6843F00103136029
:10215C00104B00229A600F4A0E4B1B6823F08473BD
:10216C0023F4803313600B4B0B4A5A60094A094B1A
:10217C001B6823F480231360064B0022DA60044BA7
:10218C004FF000629A6000BFBD465DF8047B70475B
:10219C0000ED00E00038024010300024DFF834D0AD
:1021AC00002103E00C4B5B58435004310B480C4BA3
:1021BC0042189A42F6D30B4A02E0002342F8043B41
:1021CC00094B9A42F9D3FFF7B3FF00F011F8FFF770
:1021DC00F9FC7047000003208C220008000000204E
:1021EC00100000201000002070000020FEE700000E
:1021FC0070B50D4E0D4CA41BA4100025A54209D1A1
:10220C000B4E0C4C00F020F8A41BA4100025A5428A
:10221C0005D170BD56F8253098470135EEE756F8D4
:10222C00253098470135F2E7842200088422000803
:10223C00842200088822000802440346934200D1FD
:10224C00704703F8011BF9E7F8B500BFF8BC08BCF0
:10225C009E467047F8B500BFF8BC08BC9E46704758
:10226C00000000000000000001020304060708093A
:08227C00A0DFFF7F010000005C
:04228400D10100087C
:04228800AD0100089C
:10228C001000000001000100010000000024F40017
:04000005080021A925
:00000001FF
