:020000040800F2
:1000000000000320F9170008311700083F17000807
:10001000451700084B1700085117000800000000A2
:10002000000000000000000000000000571700085A
:10003000651700080000000073170008811700080A
:10004000491800084918000849180008491800080C
:1000500049180008491800084918000849180008FC
:1000600049180008491800084918000849180008EC
:1000700049180008491800084918000849180008DC
:1000800049180008491800084918000849180008CC
:1000900049180008491800084918000849180008BC
:1000A00049180008491800084918000849180008AC
:1000B000491800084918000849180008491800089C
:1000C000491800084918000849180008491800088C
:1000D000491800084918000849180008491800087C
:1000E000491800084918000849180008491800086C
:1000F000491800084918000849180008491800085C
:10010000491800084918000849180008491800084B
:10011000491800084918000849180008491800083B
:10012000491800084918000849180008491800082B
:10013000491800084918000849180008491800081B
:10014000491800084918000849180008491800080B
:1001500049180008491800084918000849180008FB
:1001600049180008491800084918000849180008EB
:100170004918000849180008491800080000000044
:1001800049180008491800084918000849180008CB
:1001900049180008491800084918000849180008BB
:0C01A00049180008491800084918000818
:1001AC0010B5054C237833B9044B13B10448AFF3A5
:1001BC0000800123237010BD0C0000200000000003
:1001CC00A418000808B5034B1BB103490348AFF34F
:1001DC00008008BD0000000010000020A4180008DA
:1001EC0053B94AB9002908BF00281CBF4FF0FF3192
:1001FC004FF0FF3000F07AB9ADF1080C6DE904CE88
:10020C0000F006F8DDF804E0DDE9022304B07047E5
:10021C002DE9F0478C460D460446089E002B51D123
:10022C008A4217466DD9B2FA82FEBEF1000F0BD08E
:10023C00CEF1200C01FA0EF520FA0CFC02FA0EF7A6
:10024C004CEA050C00FA0EF44FEA174A250CBCFBDD
:10025C00FAF81FFA87F90AFB18CC45EA0C4508FB9B
:10026C0009F3AB420AD9ED1908F1FF3280F0238172
:10027C00AB4240F22081A8F102083D44ED1AA4B231
:10028C00B5FBFAF00AFB105544EA054400FB09F9EA
:10029C00A14509D9E41900F1FF3380F00A81A14589
:1002AC0040F2078102383C44A4EB090440EA0840C0
:1002BC000021002E61D024FA0EF400233460736008
:1002CC00BDE8F0878B4207D9002E54D0002186E878
:1002DC0021000846BDE8F087B3FA83F1002940F00D
:1002EC008E80AB4202D3824200F2FA80841A65EB14
:1002FC0003050120AC46002E3FD086E81010BDE867
:10030C00F08712B90127B7FBF2F7B7FA87FEBEF1F7
:10031C00000F34D1EB1B3A0C1FFA87FC0121B3FB05
:10032C00F2F8250C02FB183345EA03450CFB08F3E5
:10033C00AB4207D9ED1908F1FF3002D2AB4200F203
:10034C00D1808046ED1AA3B2B5FBF2F002FB10553A
:10035C0043EA05440CFB00FCA44507D9E41900F161
:10036C00FF3302D2A44500F2B8801846A4EB0C046B
:10037C0040EA08409DE731463046BDE8F087CEF1B3
:10038C00200405FA0EF307FA0EF720FA04F83A0CDB
:10039C0025FA04F448EA0308B4FBF2F14FEA1845D5
:1003AC0002FB11441FFA87FC45EA044501FB0CF3E0
:1003BC00AB4200FA0EF409D9ED1901F1FF3080F0CF
:1003CC008A80AB4240F2878002393D44EB1A1FFA17
:1003DC0088F5B3FBF2F002FB103345EA034500FB52
:1003EC000CF3AB4207D9ED1900F1FF386FD2AB42D9
:1003FC006DD902383D44EB1A40EA01418FE7C1F157
:10040C00200722FA07F88B4005FA01F448EA0303A7
:10041C0020FA07FE4FEA134CFD404EEA040EB5FBE2
:10042C00FCF94FEA1E440CFB19551FFA83F844EAF9
:10043C00054509FB08F4AC4202FA01F200FA01FA94
:10044C0008D9ED1809F1FF3043D2AC4241D9A9F1DA
:10045C0002091D442D1B1FFA8EFEB5FBFCF00CFB94
:10046C0010554EEA054400FB08F8A04507D9E418DE
:10047C0000F1FF3529D2A04527D902381C4440EAA7
:10048C000940A4EB0804A0FB02894C45C6464D4626
:10049C0015D312D056B1BAEB0E0364EB050404FA73
:1004AC0007F7CB401F43CC40376074600021BDE898
:1004BC00F0871846F8E69046E0E6C245EAD2B8EB7B
:1004CC00020E69EB03050138E4E72846D7E74046FE
:1004DC0091E78146BEE7014678E702383C4445E7A0
:1004EC00084608E7A8F102083D442BE7704700BF17
:1004FC0080B500AF0E4A0E4B1B6843F400731360BB
:10050C000B4A0B4B1B6843F480631360084A084B7F
:10051C001B6843F480731360032000F02DF9002056
:10052C0000F008F801F0D6F80023184680BD00BF93
:10053C00003C024080B582B000AF7860124B1A6864
:10054C00124B1B7819464FF47A73B3FBF1F3B2FBE1
:10055C00F3F3184600F037F90346002B01D00123C2
:10056C000EE07B680F2B0AD8002279684FF0FF3021
:10057C0000F00DF9064A7B681360002300E00123AC
:10058C0018460837BD4680BD080000200400002036
:10059C000000002080B400AF064B1B781A46064BB7
:1005AC001B681344044A136000BFBD465DF8047B0E
:1005BC00704700BF040000202800002080B400AF6A
:1005CC00034B1B681846BD465DF8047B704700BFA3
:1005DC002800002080B584B000AF7860FFF7EEFFF4
:1005EC00B8607B68FB60FB68B3F1FF3F05D0094B3B
:1005FC001B781A46FB681344FB6000BFFFF7DEFF55
:10060C000246BB68D21AFB689A42F7D300BF103778
:10061C00BD4680BD0400002080B485B000AF78607A
:10062C007B6803F00703FB600C4BDB68BB60BA68AC
:10063C004FF6FF031340BB60FB681A02BB68134301
:10064C0043F0BF6343F40033BB60044ABB68D36020
:10065C0000BF1437BD465DF8047B704700ED00E029
:10066C0080B400AF044BDB681B0A03F00703184689
:10067C00BD465DF8047B704700ED00E080B483B0AC
:10068C0000AF03463960FB7197F90730002B0ADB8A
:10069C000D4997F907303A68D2B21201D2B20B4425
:1006AC0083F800230AE00949FB7903F00F03043BAC
:1006BC003A68D2B21201D2B20B441A7600BF0C3790
:1006CC00BD465DF8047B704700E100E000ED00E002
:1006DC0080B489B000AFF860B9607A60FB6803F051
:1006EC000703FB61FB69C3F10703042B28BF042339
:1006FC00BB61FB690433062B02D9FB69033B00E0A9
:10070C0000237B610122BB6902FA03F35A1EBB680A
:10071C001A407B699A4001217B6901FA03F3591E47
:10072C007B680B40134318462437BD465DF8047BA9
:10073C007047000080B582B000AF78607B68013BE9
:10074C00B3F1807F01D301230FE00A4A7B68013BA0
:10075C0053600F214FF0FF30FFF790FF054B002245
:10076C009A60044B07221A60002318460837BD46CE
:10077C0080BD00BF10E000E080B582B000AF7860B3
:10078C007868FFF749FF00BF0837BD4680BD80B5CC
:10079C0086B000AF0346B9607A60FB7300237B61BF
:1007AC00FFF75EFF78617A68B9687869FFF790FFA8
:1007BC00024697F90F3011461846FFF75FFF00BF4E
:1007CC001837BD4680BD80B582B000AF78607868C0
:1007DC00FFF7B0FF034618460837BD4680BD000042
:1007EC0080B489B000AF7860396000237B6100234E
:1007FC003B610023BB610023FB6177E10122FB69B4
:10080C0002FA03F37B613B681A687B6913403B6116
:10081C003A697B699A4240F066813B685B68022BBF
:10082C0003D03B685B68122B23D1FB69DA087B6829
:10083C00083253F82230BB61FB6903F007039B00BD
:10084C000F2202FA03F3DB43BA691340BB613B6826
:10085C001A69FB6903F007039B0002FA03F3BA69F8
:10086C001343BB61FB69DA087B680832B96943F84A
:10087C0022107B681B68BB61FB695B00032202FAD8
:10088C0003F3DB43BA691340BB613B685B6803F05D
:10089C000302FB695B0002FA03F3BA691343BB6101
:1008AC007B68BA691A603B685B68012B0BD03B68AC
:1008BC005B68022B07D03B685B68112B03D03B684D
:1008CC005B68122B30D17B689B68BB61FB695B005A
:1008DC00032202FA03F3DB43BA691340BB613B68A2
:1008EC00DA68FB695B0002FA03F3BA691343BB6174
:1008FC007B68BA699A607B685B68BB610122FB69A3
:10090C0002FA03F3DB43BA691340BB613B685B68D3
:10091C001B0903F00102FB6902FA03F3BA691343E2
:10092C00BB617B68BA695A607B68DB68BB61FB6939
:10093C005B00032202FA03F3DB43BA691340BB6189
:10094C003B689A68FB695B0002FA03F3BA691343CC
:10095C00BB617B68BA69DA603B685B6803F0805303
:10096C00002B00F0C0800023FB60654A644B5B6C7D
:10097C0043F480435364624B5B6C03F48043FB6031
:10098C00FB68604AFB699B08023352F82330BB6159
:10099C00FB6903F003039B000F2202FA03F3DB4312
:1009AC00BA691340BB617B68574A934237D07B6866
:1009BC00564A934231D07B68554A93422BD07B6880
:1009CC00544A934225D07B68534A93421FD07B688C
:1009DC00524A934219D07B68514A934213D07B6898
:1009EC00504A93420DD07B684F4A934207D07B68A4
:1009FC004E4A934201D1092312E00A2310E0082346
:100A0C000EE007230CE006230AE0052308E004238C
:100A1C0006E0032304E0022302E0012300E00023AC
:100A2C00FA6902F0030292009340BA691343BB6166
:100A3C003449FB699B080233BA6941F823203C4BCB
:100A4C001B68BB613B69DB43BA691340BB613B6804
:100A5C005B6803F48033002B03D0BA693B69134302
:100A6C00BB61334ABB691360314B5B68BB613B694B
:100A7C00DB43BA691340BB613B685B6803F400332A
:100A8C00002B03D0BA693B691343BB61284ABB698D
:100A9C005360274B9B68BB613B69DB43BA691340CE
:100AAC00BB613B685B6803F48013002B03D0BA690D
:100ABC003B691343BB611E4ABB6993601C4BDB68EB
:100ACC00BB613B69DB43BA691340BB613B685B6844
:100ADC0003F40013002B03D0BA693B691343BB61C9
:100AEC00134ABB69D360FB690133FB61FB690F2BB4
:100AFC007FF684AE00BF2437BD465DF8047B70479B
:100B0C00003802400038014000000240000402405E
:100B1C0000080240000C0240001002400014024089
:100B2C0000180240001C0240002002400024024039
:100B3C00003C014080B483B000AF78600B467B80F2
:100B4C0013467B707B78002B03D07A887B689A6184
:100B5C0003E07B881A047B689A6100BF0C37BD46A2
:100B6C005DF8047B704780B483B000AF78600B46AF
:100B7C007B807B685A697B881A407B889A4204D1B7
:100B8C007B881A047B689A6102E07A887B689A6198
:100B9C0000BF0C37BD465DF8047B704780B586B04E
:100BAC0000AF78607B68002B01D101232DE27B68BC
:100BBC001B6803F00103002B75D0A34B9B6803F05B
:100BCC000C03042B0CD0A04B9B6803F00C03082BDC
:100BDC0012D19D4B5B6803F48003B3F5800F0BD1EE
:100BEC00994B1B6803F40033002B5BD07B685B686C
:100BFC00002B57D1012308E27B685B68B3F5803F7B
:100C0C0006D1914A904B1B6843F4803313601DE06E
:100C1C007B685B68B3F5A02F0CD18B4A8A4B1B68A1
:100C2C0043F480231360884A874B1B6843F480335A
:100C3C0013600BE0844A844B1B6823F480331360ED
:100C4C00814A814B1B6823F4802313607B685B68AB
:100C5C00002B13D0FFF7B2FC386108E0FFF7AEFCB5
:100C6C0002463B69D31A642B01D90323CDE1764BA1
:100C7C001B6803F40033002BF0D014E0FFF79EFC4C
:100C8C00386108E0FFF79AFC02463B69D31A642BE3
:100C9C0001D90323B9E16C4B1B6803F40033002B1F
:100CAC00F0D100E000BF7B681B6803F00203002B4F
:100CBC0063D0654B9B6803F00C03002B0BD0624B8D
:100CCC009B6803F00C03082B1CD15F4B5B6803F48F
:100CDC008003002B16D15C4B1B6803F00203002B26
:100CEC0005D07B68DB68012B01D001238DE15649CF
:100CFC00554B1B6823F0F8027B681B69DB00134320
:100D0C000B603AE07B68DB68002B20D04F4B012254
:100D1C001A60FFF753FC386108E0FFF74FFC0246FE
:100D2C003B69D31A022B01D903236EE1464B1B6896
:100D3C0003F00203002BF0D04349434B1B6823F014
:100D4C00F8027B681B69DB0013430B6015E03F4B1B
:100D5C0000221A60FFF732FC386108E0FFF72EFC26
:100D6C0002463B69D31A022B01D903234DE1364BC2
:100D7C001B6803F00203002BF0D17B681B6803F0A7
:100D8C000803002B30D07B685B69002B16D0304BEE
:100D9C0001221A60FFF712FC386108E0FFF70EFC25
:100DAC0002463B69D31A022B01D903232DE1264BB2
:100DBC005B6F03F00203002BF0D015E0244B0022F4
:100DCC001A60FFF7FBFB386108E0FFF7F7FB024600
:100DDC003B69D31A022B01D9032316E11A4B5B6F23
:100DEC0003F00203002BF0D17B681B6803F00403B3
:100DFC00002B00F0A0800023FB75134B1B6C03F041
:100E0C008053002B0FD10023FB600F4A0E4B1B6C41
:100E1C0043F0805313640C4B1B6C03F08053FB604A
:100E2C00FB680123FB750B4B1B6803F48073002BD1
:100E3C0021D1084A074B1B6843F480731360FFF7FA
:100E4C00BDFB386111E000BF003802400000474292
:100E5C00800E474200700040FFF7B0FB02463B6932
:100E6C00D31A022B01D90323CFE06A4B1B6803F47E
:100E7C008073002BF0D07B689B68012B06D1664AEF
:100E8C00654B1B6F43F0010313671CE07B689B6889
:100E9C00052B0CD1604A604B1B6F43F004031367A6
:100EAC005D4A5D4B1B6F43F0010313670BE05A4A1D
:100EBC00594B1B6F23F001031367574A564B1B6F9B
:100ECC0023F0040313677B689B68002B15D0FFF796
:100EDC0075FB38610AE0FFF771FB02463B69D31AD8
:100EEC0041F28832934201D903238EE04A4B1B6FA7
:100EFC0003F00203002BEED014E0FFF75FFB386128
:100F0C000AE0FFF75BFB02463B69D31A41F28832D9
:100F1C00934201D9032378E03F4B1B6F03F002038C
:100F2C00002BEED1FB7D012B05D13B4A3A4B1B6CC0
:100F3C0023F0805313647B689B69002B64D0364B81
:100F4C009B6803F00C03082B5CD07B689B69022B1D
:100F5C0041D1324B00221A60FFF730FB386108E0B8
:100F6C00FFF72CFB02463B69D31A022B01D9032352
:100F7C004BE0294B1B6803F00073002BF0D1264982
:100F8C007B68DA697B681B6A1A437B685B6A9B0126
:100F9C001A437B689B6A5B08013B1B041A437B6802
:100FAC00DB6A1B0613434B601C4B01221A60FFF7D4
:100FBC0005FB386108E0FFF701FB02463B69D31AD9
:100FCC00022B01D9032320E0134B1B6803F00073A1
:100FDC00002BF0D018E0114B00221A60FFF7EEFA4C
:100FEC00386108E0FFF7EAFA02463B69D31A022B94
:100FFC0001D9032309E0084B1B6803F00073002B95
:10100C00F0D101E0012300E0002318461837BD465B
:10101C0080BD00BF007000400038024060004742B5
:10102C0080B584B000AF786039607B68002B01D14B
:10103C000123CAE0674B1B6803F00F023B689A421E
:10104C000CD2644B3A68D2B21A70624B1B6803F034
:10105C000F023B689A4201D00123B6E07B681B6803
:10106C0003F00203002B20D07B681B6803F0040301
:10107C00002B05D0584A584B9B6843F4E0539360BF
:10108C007B681B6803F00803002B05D0524A524BB7
:10109C009B6843F4604393604F494F4B9B6823F02C
:1010AC00F0027B689B6813438B607B681B6803F0C2
:1010BC000103002B44D07B685B68012B07D1464BA6
:1010CC001B6803F40033002B19D101237DE07B68EE
:1010DC005B68022B03D07B685B68032B07D13E4B0C
:1010EC001B6803F00073002B09D101236DE03A4B10
:1010FC001B6803F00203002B01D1012365E0364984
:10110C00354B9B6823F003027B685B6813438B6051
:10111C00FFF754FAF8600AE0FFF750FA0246FB6852
:10112C00D31A41F28832934201D903234DE02A4B62
:10113C009B6803F00C027B685B689B009A42EBD1C6
:10114C00244B1B6803F00F023B689A420CD9214BCD
:10115C003A68D2B21A701F4B1B6803F00F023B683F
:10116C009A4201D0012330E07B681B6803F0040332
:10117C00002B08D01849184B9B6823F4E0527B686D
:10118C00DB6813438B607B681B6803F00803002B40
:10119C0009D01149104B9B6823F460427B681B6992
:1011AC00DB0013438B6000F01DF801460A4B9B6873
:1011BC001B0903F00F03094AD35C21FA03F3084A15
:1011CC0013600020FFF7B6F9002318461037BD4610
:1011DC0080BD00BF003C024000380240BC18000833
:1011EC00080000202DE9F04F8FB000AF0023FB6208
:1011FC0000237B630023BB6200233B63624B9B6831
:10120C0003F00C03042B07D0082B08D0002B40F064
:10121C00B2805E4B3B63B1E05D4B3B63AEE05A4B3F
:10122C005B6803F03F03FB62574B5B6803F480037E
:10123C00002B4ED0544B5B689B094FF0000440F2DE
:10124C00FF114FF0000201EA030102EA04020B460F
:10125C00144660017862786A40EAD36078625B0178
:10126C003B62D7E908345B1A64EB02044FEA841939
:10127C0049EA93694FEA8318B8EB030869EB040950
:10128C004FEAC903FB61FB6943EA5873FB614FEA00
:10129C00C803BB61D7E9068918EB010849EB0209C1
:1012AC004FEA49237B617B6943EAD8537B614FEA60
:1012BC0048233B61D7E9048940464946FB6A4FF015
:1012CC0000041A462346FEF78BFF03460C467B634D
:1012DC0043E02D4B5B689B094FF0000440F2FF117B
:1012EC004FF0000201EA030102EA04020B46144625
:1012FC006001F860F86840EAD360F8605B01BB609D
:10130C00D7E902345B1A64EB0204A60146EA936641
:10131C009D01ED1A66EB0406F3007B607B6843EAE3
:10132C0055737B60EB003B6097E860006D1846EBF3
:10133C0002064FEA862B4BEA955B4FEA852A554607
:10134C005E4628463146FB6A4FF000041A46234697
:10135C00FEF746FF03460C467B630B4B5B681B0C8E
:10136C0003F0030301335B00BB627A6BBB6AB2FB15
:10137C00F3F33B6302E0054B3B6300BF3B6B18464A
:10138C003C37BD46BDE8F08F003802400024F40025
:10139C0000127A0080B500AFFFF7AAF800F00EF843
:1013AC0000F06CF880210448FFF7DDFB4FF47A6005
:1013BC00FFF710F9F6E700BF0004024080B594B0C7
:1013CC0000AF07F1200330220021184600F05CFA30
:1013DC0007F10C0300221A605A609A60DA601A61F5
:1013EC000023BB60234A234B1B6C43F080531364D4
:1013FC00204B1B6C03F08053BB60BB6800237B60ED
:10140C001D4A1D4B1B6823F4404343F48043136077
:10141C00194B1B6803F440437B607B6802233B62DF
:10142C000123FB6210233B630023BB6307F1200302
:10143C001846FFF7B3FB0346002B01D000F042F92E
:10144C000F23FB6000233B6100237B614FF480532F
:10145C00BB610023FB6107F10C0300211846FFF769
:10146C00DFFD0346002B01D000F02CF900BF5037F4
:10147C00BD4680BD003802400070004080B58CB085
:10148C0000AF07F11C0300221A605A609A60DA6000
:10149C001A610023BB61844A834B1B6B43F004032A
:1014AC001363814B1B6B03F00403BB61BB6900230B
:1014BC007B617D4A7C4B1B6B43F0800313637A4B3F
:1014CC001B6B03F080037B617B6900233B61764AD5
:1014DC00754B1B6B43F001031363734B1B6B03F0D6
:1014EC0001033B613B690023FB606F4A6E4B1B6B36
:1014FC0043F0020313636C4B1B6B03F00203FB60A2
:10150C00FB680023BB60684A674B1B6B43F0080306
:10151C001363654B1B6B03F00803BB60BB680023B4
:10152C007B60614A604B1B6B43F0400313635E4B63
:10153C001B6B03F040037B607B68002244F281014B
:10154C005A48FFF7F7FA002240215948FFF7F2FA00
:10155C004FF40053FB61574B3B6200237B6207F156
:10156C001C0319465448FFF73BF93223FB61022355
:10157C003B6200237B620323BB620B23FB6207F1FC
:10158C001C0319464C48FFF72BF98623FB610223F9
:10159C003B6200237B620323BB620B23FB6207F1DC
:1015AC001C0319464548FFF71BF944F28103FB6104
:1015BC0001233B6200237B620023BB6207F11C0307
:1015CC0019463A48FFF70CF94FF40053FB6102231C
:1015DC003B6200237B620323BB620B23FB6207F19C
:1015EC001C0319463148FFF7FBF84FF44073FB61BD
:1015FC0002233B6200237B620323BB620723FB6253
:10160C0007F11C0319462E48FFF7EAF84023FB614B
:10161C0001233B6200237B620023BB6207F11C03A6
:10162C0019462348FFF7DCF88023FB6100233B625B
:10163C0000237B6207F11C0319461D48FFF7D0F805
:10164C004FF4E853FB6102233B6200237B620323CC
:10165C00BB620A23FB6207F11C0319461748FFF70C
:10166C00BFF84FF40073FB6100233B6200237B62E5
:10167C0007F11C0319461148FFF7B2F84FF4205339
:10168C00FB6102233B6200237B620323BB620B23BF
:10169C00FB6207F11C0319460548FFF7A1F800BFD0
:1016AC003037BD4680BD00BF003802400004024008
:1016BC0000180240000031100008024000000240F7
:1016CC00000C024080B400AF00BFBD465DF8047B47
:1016DC007047000080B483B000AF00237B60104AD9
:1016EC000F4B5B6C43F4804353640D4B5B6C03F406
:1016FC0080437B607B6800233B60094A084B1B6C72
:10170C0043F080531364064B1B6C03F080533B6017
:10171C003B6800BF0C37BD465DF8047B704700BFCB
:10172C000038024080B400AF00BFBD465DF8047BBA
:10173C00704780B400AFFEE780B400AFFEE780B422
:10174C0000AFFEE780B400AFFEE780B400AF00BF8F
:10175C00BD465DF8047B704780B400AF00BFBD464A
:10176C005DF8047B704780B400AF00BFBD465DF8E8
:10177C00047B704780B500AFFEF70CFF00BF80BD47
:10178C0080B400AF164A164BD3F8883043F470037C
:10179C00C2F88830134A134B1B6843F001031360E3
:1017AC00104B00229A600F4A0E4B1B6823F0847377
:1017BC0023F4803313600B4B0B4A5A60094A094BD4
:1017CC001B6823F480231360064B0022DA60044B61
:1017DC004FF000629A6000BFBD465DF8047B704715
:1017EC0000ED00E00038024010300024DFF834D067
:1017FC00002103E00C4B5B58435004310B480C4B5D
:10180C0042189A42F6D30B4A02E0002342F8043BFA
:10181C00094B9A42F9D3FFF7B3FF00F011F8FFF729
:10182C00B9FD704700000320DC1800080000002000
:10183C000C0000200C0000202C000020FEE7000013
:10184C0070B50D4E0D4CA41BA4100025A54209D15A
:10185C000B4E0C4C00F020F8A41BA4100025A54244
:10186C0005D170BD56F8253098470135EEE756F88E
:10187C00253098470135F2E7D4180008D418000831
:10188C00D4180008D818000802440346934200D12B
:10189C00704703F8011BF9E7F8B500BFF8BC08BCAA
:1018AC009E467047F8B500BFF8BC08BC9E46704712
:1018BC0000000000000000000102030406070809F4
:0818CC0050E9FF7F010000005C
:0418D400D101000836
:0418D800AD01000856
:0C18DC0010000000010000000024F400D7
:04000005080017F9DF
:00000001FF
