:020000040800F2
:1000000000000320E1BD0008EDBC0008EFBC0008C3
:10001000F1BC0008F3BC0008F5BC000800000000BB
:10002000000000000000000000000000B1210008F6
:10003000F7BC00080000000041220008A5220008CB
:1000400031BE000831BE000831BE000831BE0008D4
:1000500031BE000831BE000831BE000831BE0008C4
:1000600031BE000831BE000831BE000831BE0008B4
:1000700031BE000831BE000831BE000831BE0008A4
:1000800031BE000831BE000831BE000831BE000894
:1000900031BE000831BE000831BE000831BE000884
:1000A00031BE0008F9BC000831BE000831BE0008AE
:1000B00031BE000831BE000831BE000831BE000864
:1000C00031BE000831BE000831BE000831BE000854
:1000D00031BE000831BE000831BE000831BE000844
:1000E00031BE000831BE000831BE000831BE000834
:1000F00031BE000831BE000831BE000831BE000824
:1001000031BE000831BE000831BE000831BE000813
:1001100031BE000831BE000831BE000831BE000803
:1001200031BE000831BE000831BE000831BE0008F3
:1001300031BE000805BD000831BE000831BE000810
:1001400031BE000831BE000831BE000831BE0008D3
:1001500031BE000831BE000831BE000831BE0008C3
:1001600031BE000831BE000831BE000831BE0008B3
:1001700031BE000831BE000831BE0008000000009A
:1001800031BE000831BE000831BE000831BE000893
:1001900031BE000831BE000831BE000831BE000883
:0C01A00031BE000831BE000831BE00086E
:1001B00010B5054C237833B9044B13B10448AFF3A1
:1001C00000800123237010BD780000200000000093
:1001D000B0CC000808B5034B1BB103490348AFF38B
:1001E000008008BD000000007C000020B0CC0008AA
:1001F00001F0FF01102A2BDB10F0070F08D010F8D8
:10020000013B013A8B422DD010F0070F42B3F6D1DB
:10021000F0B441EA012141EA014122F007047FF0F4
:1002200000070023F0E80256083C85EA010586EA4B
:10023000010685FA47F5A3FA87F586FA47F6A5FA87
:1002400087F68EB9EED1F0BC01F0FF0102F0070293
:1002500032B110F8013B013A83EA010313B1F8D13E
:100260000020704701387047002D06BF354603381F
:10027000073815F0010F07D1013015F4807F02BF58
:10028000013015F4C03F0130F0BC0138704700BFA9
:1002900053B94AB9002908BF00281CBF4FF0FF31ED
:1002A0004FF0FF3000F07AB9ADF1080C6DE904CEE3
:1002B00000F006F8DDF804E0DDE9022304B0704741
:1002C0002DE9F0478C460D460446089E002B51D17F
:1002D0008A4217466DD9B2FA82FEBEF1000F0BD0EA
:1002E000CEF1200C01FA0EF520FA0CFC02FA0EF702
:1002F0004CEA050C00FA0EF44FEA174A250CBCFB39
:10030000FAF81FFA87F90AFB18CC45EA0C4508FBF6
:1003100009F3AB420AD9ED1908F1FF3280F02381CD
:10032000AB4240F22081A8F102083D44ED1AA4B28C
:10033000B5FBFAF00AFB105544EA054400FB09F945
:10034000A14509D9E41900F1FF3380F00A81A145E4
:1003500040F2078102383C44A4EB090440EA08401B
:100360000021002E61D024FA0EF400233460736063
:10037000BDE8F0878B4207D9002E54D0002186E8D3
:1003800021000846BDE8F087B3FA83F1002940F068
:100390008E80AB4202D3824200F2FA80841A65EB6F
:1003A00003050120AC46002E3FD086E81010BDE8C2
:1003B000F08712B90127B7FBF2F7B7FA87FEBEF153
:1003C000000F34D1EB1B3A0C1FFA87FC0121B3FB61
:1003D000F2F8250C02FB183345EA03450CFB08F341
:1003E000AB4207D9ED1908F1FF3002D2AB4200F25F
:1003F000D1808046ED1AA3B2B5FBF2F002FB105596
:1004000043EA05440CFB00FCA44507D9E41900F1BC
:10041000FF3302D2A44500F2B8801846A4EB0C04C6
:1004200040EA08409DE731463046BDE8F087CEF10E
:10043000200405FA0EF307FA0EF720FA04F83A0C36
:1004400025FA04F448EA0308B4FBF2F14FEA184530
:1004500002FB11441FFA87FC45EA044501FB0CF33B
:10046000AB4200FA0EF409D9ED1901F1FF3080F02A
:100470008A80AB4240F2878002393D44EB1A1FFA72
:1004800088F5B3FBF2F002FB103345EA034500FBAD
:100490000CF3AB4207D9ED1900F1FF386FD2AB4234
:1004A0006DD902383D44EB1A40EA01418FE7C1F1B2
:1004B000200722FA07F88B4005FA01F448EA030303
:1004C00020FA07FE4FEA134CFD404EEA040EB5FB3E
:1004D000FCF94FEA1E440CFB19551FFA83F844EA55
:1004E000054509FB08F4AC4202FA01F200FA01FAF0
:1004F00008D9ED1809F1FF3043D2AC4241D9A9F136
:1005000002091D442D1B1FFA8EFEB5FBFCF00CFBEF
:1005100010554EEA054400FB08F8A04507D9E41839
:1005200000F1FF3529D2A04527D902381C4440EA02
:100530000940A4EB0804A0FB02894C45C6464D4681
:1005400015D312D056B1BAEB0E0364EB050404FACE
:1005500007F7CB401F43CC40376074600021BDE8F3
:10056000F0871846F8E69046E0E6C245EAD2B8EBD6
:10057000020E69EB03050138E4E72846D7E7404659
:1005800091E78146BEE7014678E702383C4445E7FB
:10059000084608E7A8F102083D442BE7704700BF72
:1005A00008B50B4B1A6842F400721A601A6842F4DC
:1005B00080621A601A6842F480721A60032000F0A8
:1005C0002FF800200BF054FB0BF0B6FA002008BD0A
:1005D000003C0240034A044B11681B780B44136033
:1005E000704700BFE03F002000000020014B18686A
:1005F000704700BFE03F002038B50446FFF7F6FF24
:10060000631C1CBF054B1B78054618BFE418FFF799
:10061000EDFF401B8442FAD838BD00BF0000002027
:10062000074AD36823F4E0631B041B0C43F0BF6349
:10063000000243F4003300F4E0600343D3607047EA
:1006400000ED00E0174B30B5DC68C4F30224C4F1C0
:100650000703251D042B28BF0423062D4FF0010599
:1006600005FA03F303F1FF338CBF033C0024194068
:10067000A14005FA04F4013C2240002842EA0102AC
:100680004FEA0212ADBF00F1604000F00F00064BD0
:1006900000F56140B5BFD2B2D2B21A5480F800233F
:1006A00030BD00BF00ED00E014ED00E0002808DBE5
:1006B0004209012300F01F0003FA00F0014B43F848
:1006C0002200704700E100E082B0074B4FF4FA527D
:1006D0001B68B3FBF2F3019300BF019B5A1E01920A
:1006E000002BF9D102B070471000002007B500239D
:1006F000019341F2180103685A5842F480125A508B
:100700005B580193FFF7E0FF019A03685A5003B06A
:100710005DF804FB70B5044629B14FF40063C36073
:100720004FF480438360E3692268E0681568002B1A
:10073000A36843EA0003304843F4007300EA05006D
:100740000CBF4FF48061002103430B431360012071
:100750001568FFF751FF236840221D6001205A6091
:100760005D68FFF749FF23685D6000259D60DD60DF
:100770009A6922F0BE021204120C42F080029A61C1
:1007800001209E69FFF738FF236801209E61DD612B
:10079000DD69FFF731FF2268184BD56141F218057A
:1007A000012051590B4043F0087343F004035351A7
:1007B0005659FFF721FF2368114A5E5103F5805314
:1007C00001201A601D68FFF717FF226802F58053A9
:1007D0001D60A369012B07D141F21C01535843F45A
:1007E000803343F0400353506369064A998811608F
:1007F0001A68054B1A6070BD0F8120FF233FDEF899
:100800008020C1024080024044800240F0B590F850
:100810004540012C4FF0020433D0012580F84550AB
:1008200080F84440C16201F1200400254FF4801794
:1008300040F2F45E03F1FF3C9D420BD1026841F2AD
:100840001003D150012380F84430002380F8453054
:100850001846F0BD0EFB052644F8186CC66944F82E
:10086000207C2EB954F8206C46F4400644F8206CE5
:1008700065452CBF0E46264644F8146C01352034DD
:10088000DAE72046F0BD2DE9F04190F84540012C13
:100890004FF0020430D0012580F8455080F84440E4
:1008A000816201F1200400254FF0004644F2F45724
:1008B00040F2F45E03F1FF3C9D420CD1026841F22C
:1008C0000C03D150012380F84430002380F84530D8
:1008D0001846BDE8F0810EFB052844F8188C6545E4
:1008E0002CBF8846A04644F8206C44F81C7C44F891
:1008F000148C01352034DFE72046BDE8F08100008C
:1009000090F84530012BF0B54FF0020368D001227A
:1009100080F8452080F8443029B980F8442080F8D8
:1009200045101046F0BDC36A1C68002C06DA12237D
:1009300080F84430002380F84530F2E740F2F45468
:10094000A1422ED9B1FBF4F204FB12143CB30132E4
:10095000244C01F2F45104FB0211C1F30C010024F8
:1009600040F2F456571E1D6825F040551D601CB915
:100970001D6845F080551D60A74208BF1D685E6078
:1009800004BF45F000551D601D6808BF5960013463
:1009900045F0004594421D60DB68E4D10DE0012A7A
:1009A000D6D11A6842F040521A601A68C1F30C019D
:1009B00042F0004259601A60DB68C36241F21402DF
:1009C00003689958490705D50421995041F204025A
:1009D00000219950012380F84430002380F84530ED
:1009E0001846F0BD0CFAFFFF90F84530012B30B5EA
:1009F0004FF002033BD0012280F8452080F84430BC
:100A000005241146836A1A68002A01DB013C06D1DD
:100A10000123002280F8443080F8452027E01A683E
:100A2000DD6802F44072B2F5007F03D10363816395
:100A30008562E7E71A6812F4407F826B02D10132C7
:100A40008263F5E70132012A08BF036343631B6831
:100A50008263C3F30D43043BC363036B9B6803646E
:100A6000012380F844300023856280F84530184621
:100A700030BD7047704770B5026841F214060446F5
:100A8000955915F0400521D00AF046FD2368402213
:100A90009A51012384F84430002384F845302368B8
:100AA00041F214054FF480325A515B591B040CD5A6
:100AB0002046FFF7DFFF23684FF400425A5101231D
:100AC00084F84430002384F8453070BD9359DA0728
:100AD000E5D5FFF7CEFF22680123935184F8443017
:100AE00084F84550DBE7F8B590F84430822B054692
:100AF000164630D00268822380F844301369890199
:100B000001F4F86403F01C012143048AE402A4B256
:100B10000C4344F001041461FFF768FD074614F02C
:100B2000010007D12B685B699BB23360012385F814
:100B30004430F8BDFFF75AFDC01BB0F5803F07D326
:100B4000012385F84430002385F845300320F8BDA3
:100B50002B681C69E3E70220F8BD90F84430422B73
:100B600070B505462ED0422380F8443003688C01CE
:100B7000186904F4F86444F0030400F01C002043F6
:100B80002C8AE402A4B2044392B25A611C61FFF7BA
:100B90002DFD064614F0010003D1012385F84430F1
:100BA00070BDFFF723FD801BB0F5803F07D3012305
:100BB00085F84430002385F84530032070BD2B684C
:100BC0001C69E7E7022070BDF7B5002300930446D7
:100BD000002800F0DE8090F8443003F0FF021BB9DB
:100BE00080F845200AF008FC002301936A4B5A6CF8
:100BF00042F480425A645B6C03F480430193019B8E
:100C0000664B5A6822F400025A605A68216A0A4305
:100C10005A60236803F580531A6842F001021A6093
:100C2000FFF7E4FC0546236803F580521268D007FD
:100C30001DD41D6900F0BCFC594B5A4A0344934231
:100C400025F01C0522D845F0080523684FF4004222
:100C50001D6100212046FFF780FF054668B3012192
:100C600020460125FFF756FD84F844500BE0FFF7BE
:100C7000BDFC401BB0F5FA7FD5D90325002384F8CD
:100C8000445084F84530284603B0F0BD464B474AEF
:100C90000344934202D845F00C05D6E7444B454A3D
:100CA00003449342D1D9444B444A0344934294BFF2
:100CB00045F0040545F01005C7E7FF20FFF79CFC51
:100CC0006368002B53D0FFF791FC41F2883706464A
:100CD0006A4601212046FFF706FFFFF787FC801BCD
:100CE000B8420BD901212046FFF714FD012384F8F7
:100CF0004430002384F845300325C4E7009B59079E
:100D0000E6D54FF4805200212046FFF726FF002849
:100D1000A5D1FFF76BFC41F2883706466A460121F0
:100D20002046FFF7E0FEFFF761FC801BB842D9D8F0
:100D3000009B9A06F2D56A461F212046FFF7D3FE94
:100D400000288CD1009B13F0100218BF4FF40062F2
:100D50005B074CBF00234FF48043E260A360002197
:100D60002046FFF7D7FC012384F844308BE7A368C3
:100D7000E2685B0843EAD20292B229462046FFF7B6
:100D8000ECFE00287FF46BAF40F6FF70FFF734FCF9
:100D9000E5E7012577E700BF003802400038014051
:100DA00000D3CEFEBFE1E40040F1E9FD3F787D01D4
:100DB00000796CFCFF596202001F0AFA7FF0FA0208
:100DC00090F84530012B73B505464FF0020031D045
:100DD00000242B6885F8440001941A68012642F02B
:100DE000080285F845601A601B680193FFF76CFCE8
:100DF0002B68019A1A6000941A6842F004021A6083
:100E00001B680093FFF760FC2B68009A1A60284665
:100E1000FFF76CFC2A6841F218032046D15841F4D0
:100E20000051D150D15841F00201D15085F84460B1
:100E300085F8454002B070BD2DE9F04F85B00B68D4
:100E4000DFF8C4816E4ADFF8C491019300234FF0AC
:100E5000010E019C0EFA03FE0EEA0406B64540F0B0
:100E6000B6804C6824F01007022F16D14FEAD30A3F
:100E700000EB8A0A03F0070BDAF820504FEA8B0BDD
:100E80004FF00F0C0CFA0BFC25EA0C0C0D6905FA5F
:100E90000BF545EA0C05CAF820504FEA430A032532
:100EA000D0F800B005FA0AF5ED4304F0030C0BEAA4
:100EB000050B0CFA0AFC013F4CEA0B0C012FC0F8A1
:100EC00000C011D8876807EA050BCF6807FA0AFC4B
:100ED0004CEA0B078760476827EA0E0EC4F3001739
:100EE0009F4047EA0E074760C7683D408F6807FA92
:100EF0000AF73D43C560E50069D54FF0000BCDF81A
:100F00000CB0D8F844703F4D47F48047C8F844709F
:100F1000D8F8447007F480470397039F23F0030732
:100F200007F1804707F59C3703F0030CD7F808A0BA
:100F30004FEA8C0C4FF00F0E0EFA0CFEA8422AEA74
:100F40000E0E4BD005F58065A84249D005F58065A9
:100F5000A84247D005F58065A84245D005F58065D3
:100F6000A84243D0484543D005F50065A84241D08A
:100F700005F58065A8423FD005F58065A8423DD0C3
:100F800005F58065A84214BF0A25092505FA0CF568
:100F900045EA0E05BD601568F74314F4803F0CBFA9
:100FA0003D4035431560556814F4003F0CBF3D408B
:100FB00035435560956814F4801F0CBF3D403543A0
:100FC0009560D568A40254BF3D403543D5600133D8
:100FD000102B7FF43CAF05B0BDE8F08F5D46D5E740
:100FE0000125D3E70225D1E70325CFE70425CDE787
:100FF0000525CBE70625C9E70725C7E70825C5E787
:10100000003C014000000240003802400014024051
:101010000AB1816170470904FBE7F0B505468BB062
:1010200030B390F8BD3303F0FF021BB980F8BC2346
:101030000AF0DCFD2C46032354F8100B85F8BD3371
:1010400000F0D4FD0FCC6E460FC60FCC0FC694E84F
:10105000030086E803002C462F1D97E80E0054F885
:10106000100B00F083FD064620B1022385F8BD3346
:10107000012450E00146286800F0BEFD3046D5F856
:1010800004E01C264FF0010C0146C2B2964500F167
:1010900001001CD800231C261946D8B2864503F14E
:1010A000010322D80FCC6E460FC60FCC0FC694E8B2
:1010B000030086E8030097E80E00286800F0DEFDD4
:1010C0000123044600B3022285F8BD23D0E706FBC6
:1010D000025383F83DC083F83C20A3F8422083F8F4
:1010E0003F10596499641965CFE706FB005282F8F6
:1010F000FD1182F8FC0182F8FF11C2F80412C2F857
:101100000812C2F81012C8E785F8380085F8BD3318
:10111000286800F077FE20460BB0F0BD2DE9F341C2
:10112000044618B9012002B0BDE8F0810368DD076C
:1011300010D42368980758D423681A0700F19A80BE
:1011400023685B0700F1B880A269002A40F019818A
:101150000020E8E7A64B9A6802F00C02042A07D0A8
:101160009A6802F00C02082A0AD15B68590207D576
:101170009F4B1B689A03DCD56368002BD9D1D1E75C
:1011800063689B4DB3F5803F11D12B6843F48033E6
:101190002B60FFF72BFA964D06462B689B03C8D4AD
:1011A000FFF724FA801B6428F7D90320BBE7B3F5C7
:1011B000A02F04D12B6843F480232B60E5E72A6835
:1011C00022F480322A602A6822F480222A60002BCE
:1011D000DFD1FFF70BFA06462B689F03A9D5FFF76F
:1011E00005FA801B6428F7D9DFE7814B9A6812F073
:1011F0000C0F07D09A6802F00C02082A11D15B6824
:101200005E020ED47A4B1A68950702D5E268012A6D
:1012100088D11A68216922F0F80242EAC1021A60F4
:101220008AE7E268734BB2B101221A60FFF7DEF978
:101230006F4D06462B68980707D52B68226923F067
:10124000F80343EAC2032B6076E7FFF7CFF9801B70
:101250000228EFD9A9E71A60FFF7C8F9644D0646DE
:101260002B6899077FF568AFFFF7C0F9801B02284C
:10127000F6D99AE76269604B7AB101221A60FFF7EA
:10128000B5F95B4D06466B6F9F073FF559AFFFF70A
:10129000ADF9801B0228F6D987E71A60FFF7A6F997
:1012A000534D06466B6F98077FF54AAFFFF79EF9DF
:1012B000801B0228F6D978E74D4B1A6C12F0805249
:1012C00028D101921A6C42F080521A641B6C03F010
:1012D00080530193019B0126484D2B68D9051BD5EE
:1012E000A368434D012B27D12B6F43F001032B67DC
:1012F000FFF77CF93E4D074641F288382B6F9B077C
:1013000039D5002E3FF420AF394A136C23F08053B7
:10131000136419E70026DFE72B6843F480732B6022
:10132000FFF764F907462B68DA05D9D4FFF75EF9B1
:10133000C01B0228F7D938E7052B04D12B6F43F0E7
:1013400004032B67D0E72A6F22F001022A672A6F75
:1013500022F004022A67002BCAD1FFF747F941F2B5
:10136000883807462B6F9807CBD5FFF73FF9C01B8E
:101370004045F7D919E7FFF739F9C01B4045BDD9FA
:1013800013E71B4DAB6803F00C03082B3FF4CAAE08
:101390001B4E0023022A336034D1FFF727F907469A
:1013A0002B6899011ED4226AE3691343626A43EAF7
:1013B0008213E26A43EA0263A26A0D4C5208013AC0
:1013C00043EA02436B6001233360FFF70FF90546E0
:1013D00023689A013FF5BCAEFFF708F9401B0228CD
:1013E000F6D9E2E6FFF702F9C01B0228D8D9DCE6FD
:1013F0000038024000004742800E47420070004023
:1014000060004742FFF7F2F804462B689B017FF526
:101410009FAEFFF7EBF8001B0228F6D9C5E600BF28
:10142000134908B58B6803F00C03042B03D0082B79
:1014300003D0104808BD104808BD4A684B68496889
:1014400013F4800314BF0C480A48C1F3881118BF75
:10145000002302F03F02A1FB0001FEF719FF044B3D
:101460005B68C3F3014301335B00B0FBF3F008BDDD
:10147000003802400024F40000127A002DE9F04107
:101480000D46044610B90120BDE8F081444B1A68AE
:1014900002F00F028A4228D321688F072DD4C80793
:1014A00040D43F4B1A6802F00F02954266D322687F
:1014B00051076CD4130707D53A4A2169936823F47E
:1014C000604343EAC1039360FFF7AAFF354B364AF6
:1014D0009B68C3F30313D35CD840344B18600020DF
:1014E0000AF0C6FB0020BDE8F081CAB21A701B6882
:1014F00003F00F039942C6D1CEE72A4B11F0040F37
:101500001EBF9A6842F4E0529A600E0742BF9A6882
:1015100042F460429A609A68A06822F0F0020243A6
:101520009A60BCE762681F4B012A1DD11B6813F447
:10153000003FA8D01B4EB36823F003031343B360EE
:10154000FFF754F841F288380746B368626803F041
:101550000C03B3EB820FA4D0FFF748F8C01B404543
:10156000F3D90320BDE8F081911E01291B6802D840
:1015700013F0007FDDE713F0020FDAE7EAB21A702A
:101580001B6803F00F039D427FF47DAF8FE7054991
:10159000E0688B6823F4E05303438B608AE700BF65
:1015A000003C02400038024006EE00081000002017
:1015B000014B1868704700BF10000020044B054A1B
:1015C0009B68C3F38223D35C034A1068D8407047FA
:1015D0000038024016EE000810000020044B054AB7
:1015E0009B68C3F34233D35C034A1068D84070470A
:1015F0000038024016EE0008100000200F230360A0
:101600000B4B9A6802F0030242609A6802F0F00203
:1016100082609A6802F4E052C2609B68DB0803F4BF
:10162000E0530361034B1B6803F00F030B6070472B
:1016300000380240003C024070470368DA6842F01C
:101640000102DA609A6802F00702062A1EBF1A68D1
:1016500042F001021A6000207047704770477047DF
:10166000704703681A69910710B504460ED5DA6809
:1016700092070BD56FF002021A619B6901229B074A
:10168000027777D0FFF7EAFF0023237723681A69F0
:10169000500710D5DA6851070DD56FF004021A61B2
:1016A0009B69022213F4407F2277204668D0FFF71F
:1016B000D5FF0023237723681A6912070FD5DA684C
:1016C00010070CD56FF008021A61DB690422990734
:1016D000227720465AD0FFF7C1FF002323772368E3
:1016E0001A69D20610D5DA68D0060DD56FF010024F
:1016F0001A61DB69082213F4407F227720464BD021
:10170000FFF7ACFF0023237723681A69D10708D5B8
:10171000DA68D20705D56FF001021A6120460AF097
:1017200001FA23681A69100608D5DA68110605D58A
:101730006FF080021A61204600F0B7F823681A693A
:10174000520608D5DA68500605D56FF040021A61D6
:101750002046FFF785FF23681A69910622D5DA68CB
:1017600092061FD56FF0200220461A61BDE8104096
:1017700000F09AB8FFF771FF2046FFF770FF83E78C
:10178000FFF76BFF2046FFF76AFF92E7FFF765FF61
:101790002046FFF764FFA0E7FFF75FFF2046FFF753
:1017A0005EFFAFE710BD0000304A0368904212D0E0
:1017B000B0F1804F0FD0A2F57C4290420BD002F5E1
:1017C0008062904207D002F58062904203D002F519
:1017D0007842904219D14A6823F070031343234A98
:1017E000904229D0B0F1804F26D0A2F57C429042A1
:1017F00022D002F5806290421ED002F580629042B3
:101800001AD002F57842904216D0194A904213D06D
:1018100002F5806290420FD002F5806290420BD0B8
:10182000A2F59832904207D002F58062904203D030
:1018300002F58062904203D1CA6823F440731343D7
:101840004A6923F08003134303608B68C3620B680B
:101850008362064B984203D003F58063984201D11E
:101860000B69036301234361704700BF000001401F
:101870000040014010B50446A0B190F83D3003F09F
:10188000FF021BB980F83C20FFF7D6FE022384F844
:101890003D302068211DFFF787FF012384F83D308C
:1018A000002010BD012010BD704770472DE9F047A2
:1018B0000668C2683369C16923F440531343336136
:1018C000044683680069F2680343606922F41642A3
:1018D000034322F00C020B431343F3607369A269C4
:1018E00023F440731343B1F5004F73617A4B7CD1FD
:1018F0009E4203D003F580639E4244D1FFF76EFE03
:10190000192505FB00F360684FF064094000B3FB44
:10191000F0F3B3FBF9F34FEA0318FFF75FFE6368D8
:1019200068435B00B0FBF3F7FFF758FE636868435A
:101930005B00B0FBF3F3B3FBF9F309FB1373DB00BC
:101940003233B3FBF9F35B0003F4F877FFF746FE9D
:10195000626868435200B0FBF2FAFFF73FFE63682B
:1019600068435B00B0FBF3F3B3FBF9F309FB13A38C
:10197000DB003233B3FBF9F303F0070343443B448A
:10198000B360BDE8F087FFF719FE192505FB00F3EA
:1019900060684FF064094000B3FBF0F3B3FBF9F368
:1019A0004FEA0318FFF70AFE636868435B00B0FB69
:1019B000F3F7FFF703FE636868435B00B0FBF3F3E4
:1019C000B3FBF9F309FB1373DB003233B3FBF9F319
:1019D0005B0003F4F877FFF7F1FD6268684352009B
:1019E000B0FBF2FAFFF7EAFDB9E79E4202D03B4BAB
:1019F0009E4240D1FFF7F2FD676819254FF0640958
:101A000005FB00F3BF00B3FBF7F3B3FBF9F31F01D2
:101A1000FFF7E4FD636868439B00B0FBF3F8FFF752
:101A2000DDFD636868439B00B0FBF3F3B3FBF9F3A0
:101A300009FB13831B013233B3FBF9F303F0F00806
:101A4000FFF7CCFD626868439200B0FBF2FAFFF743
:101A5000C5FD636868439B00B0FBF3F3B3FBF9F388
:101A600009FB13A31B013233B3FBF9F303F00F039C
:101A700043EA080383E7FFF7A1FD676819254FF0E4
:101A8000640905FB00F3BF00B3FBF7F3B3FBF9F305
:101A90001F01FFF793FD636868439B00B0FBF3F8F9
:101AA000FFF78CFD636868439B00B0FBF3F3B3FB67
:101AB000F9F309FB13831B013233B3FBF9F303F092
:101AC000F008FFF77BFD626868439200B0FBF2FA12
:101AD000FFF774FDBDE700BF001001400014014096
:101AE00010B5044640B390F8393003F0FF021BB93B
:101AF00080F838200AF042F82268242384F839302C
:101B0000D36823F40053D3602046FFF7CFFE236849
:101B10001A6922F490421A615A6922F02A025A6123
:101B2000DA6842F40052DA6000202023E06384F88F
:101B3000393084F83A3010BD012010BD0A4B013B0A
:101B400001D1032070470269002AF8DA0369064AC6
:101B500043F001030361013AF3D0036913F0010379
:101B6000F9D11846704700BF410D030084B038B565
:101B700005AD85E80E000A9B012B044625D1836B39
:101B800023F480338363C36823F4840323F0400386
:101B9000C360C36823F44013C360119B012B02BFD1
:101BA000C36843F48013C360FFF7C8FF089B012B91
:101BB00007D1A36843F00603A360A36843F02003A2
:101BC000A360BDE8384004B07047C36843F04003E9
:101BD000C360FFF7B3FF0E9B23B9A36B43F48033BD
:101BE000A363E3E7A36B23F48033F9E7836823F06F
:101BF000010383600020704708B5C368012923F002
:101C0000C043C36008D1C36843F00053C3603220AF
:101C1000FEF7F2FC002008BD19B9C36843F0804309
:101C2000F4E7012008BD0000890141F02001064AC7
:101C30000161013A05D0036913F02003F9D1184678
:101C400070470320704700BF410D03001023064A70
:101C50000361013A05D0036913F01003F9D1184666
:101C600070470320704700BF410D0300D0F80038D3
:101C70001943C0F8001800207047000084B02DE917
:101C8000F047044609A880E80E0000230C9F139E2D
:101C90008846194603F1400204EB820201330F2B00
:101CA0005160F7D1002E73D1A36B43F40013A363EB
:101CB000A36B23F40023A363A36B23F48023A36308
:101CC0000023C4F8003ED4F80038C4F800380E9B56
:101CD000012B04F5006565D10B99002960D12046E0
:101CE000FFF7C4FF10212046FFF79EFF0146204664
:101CF000FFF7ACFF002857D1081C18BF01200023B4
:101D00002B6104F510626B611946EB614FF0904E48
:101D10004FF0006C4FF67F39434547D1002104F561
:101D200030628E464FF0904C4FF000684FF67F398E
:101D30008B424ED12B69012F23F480732B6107D185
:101D40002E4B2B632B6B43F4803343F003032B6345
:101D50000023A3616FF0804363611FB9A36943F05F
:101D60001003A361A269264B1343A3610F9B1BB110
:101D7000A36943F00803A361012E01BFA36943F0E7
:101D8000804343F00403A361BDE8F04704B070470B
:101D9000236823F400132360A36B43F400238EE72E
:101DA00019469CE703219AE70120A8E7D2F800A092
:101DB000BAF1000F0BDA3BB9C2F800C01161013370
:101DC000C2F808902032A7E7C2F800E0F6E71160F9
:101DD000F4E7D2F800A0BAF1000F0CDA41B9C2F86A
:101DE0000080C2F810E00131C2F8089020329FE76D
:101DF000C2F800C0F5E7C2F800E0F2E70001800099
:101E000000383C8008B5D0F8043843F00203C0F82D
:101E100004380320FEF7F0FB002008BD08B501F0F0
:101E200093F9002008BDEFF305830BB101F0D6B99B
:101E300001F0CEB930B5B0F90840028A0B4690E8FF
:101E4000220085B0842C14BF0334002403A8019021
:101E50000094284601F0B6F801280CBF0398002032
:101E600005B030BD08B5002808BF012001F092FA86
:101E7000002008BD012000F06DBD000013B5002456
:101E80000194E0B1EFF30583A3B101AA214600F06C
:101E900079FF012802D0FF2002B010BD019B3BB1A9
:101EA000084B4FF080521A60BFF34F8FBFF36F8F14
:101EB0000020F1E700F0AEFE0128ECD1F8E7802029
:101EC000EAE700BF04ED00E0012910B508460CD197
:101ED0000322002100F073FC044620B100231A46BF
:101EE000194600F08DFC204610BD0024FBE70000E1
:101EF00013B500240194E0B1EFF30583A3B101AA67
:101F0000214600F03FFF012802D0FF2002B010BDA3
:101F1000019B3BB1084B4FF080521A60BFF34F8FCB
:101F2000BFF36F8F0020F1E700F074FE0128ECD1C1
:101F3000F8E78020EAE700BF04ED00E013B50024D5
:101F40000194EFF3058393B101A900F077FD012817
:101F500013D1019B13B9002002B010BD084B4FF004
:101F600080521A60BFF34F8FBFF36F8FF3E71A46AB
:101F7000194600F045FC0128EDD0FF20ECE700BF3A
:101F800004ED00E0FFF7DABF002203C800F017BC41
:101F90001FB5002401910394A24208BF0122EFF370
:101FA0000583ABB1234603AA01A900F0E5FC012893
:101FB00002D0FF2004B010BD039B3BB1074B4FF094
:101FC00080521A60BFF34F8FBFF36F8F0020F1E78D
:101FD00001A900F015FC0128EBD1F7E704ED00E0C2
:101FE000F0B585B0002604461746084603910296D0
:101FF00001AD11B98023019317E00096EFF305833B
:10200000D3B16A4602A900F0BDFE012804BF102327
:102010000193009B18BF01963BB10D4B4FF08052CE
:102020001A60BFF34F8FBFF36F8F95E8070084E806
:102030000700204605B0F0BD02A900F053FD0128BD
:1020400001D11023D7E7002F0CBF00234023D2E794
:1020500004ED00E0EFF305830BB100F0F6BE00F0F5
:10206000E1BE10B5EFF305841CB900F00FFF204668
:1020700010BD822010BDFFF7F4BF00F108034360DC
:102080004FF0FF32C360036100238260036070473A
:1020900000230361704743684B609A688A609A68BE
:1020A00051609960036808610133036070470A68F2
:1020B000531C30B50AD103695A684A6091608B603D
:1020C0005960036808610133036030BD00F1080303
:1020D0005C682568AA42EFD32346F9E74168826825
:1020E00003698A60826851605968884208BF5A60F3
:1020F000002202611A68013A1A60186870470000ED
:1021000082B0002301930D4B1B68013308D04FF0C0
:10211000500383F31188BFF36F8FBFF34F8FFEE738
:102120004FF0500383F31188BFF36F8FBFF34F8FCE
:10213000019B002BFCD002B0704700BF04000020C0
:1021400008480068006880F308884FF0000080F3BA
:10215000148862B661B6BFF34F8FBFF36F8F00DF95
:1021600000BF000008ED00E0DFF80C00016841F45A
:10217000700101607047000088ED00E04FF080734F
:1021800040F8043C074B40F80C3C21F001016FF093
:10219000020340F8081C40F8202C40F8243C443846
:1021A000704700BF0121000800000000000000008F
:1021B000074B19680868B0E8F04F80F30988BFF34F
:1021C0006F8F4FF0000080F311887047AFF30080ED
:1021D000B43C00204FF0500383F31188BFF36F8F9E
:1021E000BFF34F8F0A4A13680133012B13600DD1DF
:1021F000084B1B6813F0FF0F08D04FF0500383F318
:102200001188BFF36F8FBFF34F8FFEE7704700BF9A
:102210000400002004ED00E0084A136843B94FF0C1
:10222000500383F31188BFF36F8FBFF34F8FFEE727
:10223000013B13600BB983F3118870470400002041
:10224000EFF30980BFF36F8F154B1A681EF0100F64
:1022500008BF20ED108A20E9F04F10602DE9090039
:102260004FF0500080F31188BFF34F8FBFF36F8F93
:1022700001F0B4F84FF0000080F3118809BC196830
:102280000868B0E8F04F1EF0100F08BFB0EC108ADD
:1022900080F30988BFF36F8F704700BFAFF30080F2
:1022A000B43C002008B54FF0500383F31188BFF30E
:1022B0006F8FBFF34F8F00F099FF18B1034B4FF0B2
:1022C00080521A60002383F3118808BD04ED00E0FA
:1022D000084A0949002313600B60084B4FF47A71D8
:1022E0001B68B3FBF1F30649013B0B600723136046
:1022F000704700BF10E000E018E000E01000002090
:1023000014E000E0394B3A4A13B51968914208D1FC
:102310004FF0500383F31188BFF36F8FBFF34F8FDC
:10232000FEE71A68334B9A4208D14FF0500383F30B
:102330001188BFF36F8FBFF34F8FFEE72E4B1A78D4
:10234000D2B20192FF221A701B782C4ADBB28DF8B0
:1023500003309DF8033003F050031370284B07221D
:102360001A6000219DF80300000602F1FF340DD42D
:1023700001B11A601A68032A11D04FF0500383F399
:102380001188BFF36F8FBFF34F8FFEE79DF80320D7
:102390005200D2B28DF8032001212246E2E7120258
:1023A00002F4E0621A60019B134ADBB21370154B12
:1023B0001A6842F470021A601A6842F070421A6099
:1023C000FFF786FF104B00241C60FFF7CDFE0F4A7D
:1023D000136843F040431360FFF7B2FE00F0FEFFC6
:1023E000FFF78EFE204602B010BD00BF00ED00E0FA
:1023F00071C20F4170C20F4100E400E09400002060
:102400009800002020ED00E00400002034EF00E000
:10241000EFF305830F2B0ED9104A9B5C104A1278FC
:102420009A4208D94FF0500383F31188BFF36F8F9E
:10243000BFF34F8FFEE70B4B0B4A1B68126803F488
:10244000E063934208D94FF0500383F31188BFF340
:102450006F8FBFF34F8FFEE7704700BFF0E300E0E0
:10246000940000200CED00E09800002010B50F4B08
:102470001A68824218D35C681919884201BF416802
:10248000184609195960446801198A4207D1084958
:1024900009688A421FBF5168126809194160984251
:1024A000026018BF186010BD1346E1E7AC3C002085
:1024B0009C0000202DE9F041044600F081FE3E49D9
:1024C0003E4D0B680BBB3E4A56071FBFD01D20F088
:1024D000070002F570531B1A14BF02464FF47053E5
:1024E0001344083B23F00703364E0B600020706056
:1024F000326058601860981A1360334B506018604F
:10250000324B18604FF000432B602F68274216D1E2
:10251000002C41D004F1080358071CBF23F0070327
:10252000083363B1294A1668B342904607D8254A52
:1025300015686868834204D809688D4207D1002471
:102540002AE02C68002CF7D02A462546F1E72968B6
:1025500014681160C21A102A0FD9E818410708D070
:102560004FF0500383F31188BFF36F8FBFF34F8F8A
:10257000FEE742606B60FFF779FF13496B680868FC
:10258000F61A1F4386424FF00003C8F8006038BFB8
:102590000E6008346F602B6000F094FE630708D073
:1025A0004FF0500383F31188BFF36F8FBFF34F8F4A
:1025B000FEE72046BDE8F0819C000020A03C002002
:1025C000A0000020AC3C0020A83C0020A43C00203F
:1025D00010B5044670B3184A50F8043C1268134210
:1025E00008D14FF0500383F31188BFF36F8FBFF30F
:1025F0004F8FFEE750F8081C41B14FF0500383F3B2
:102600001188BFF36F8FBFF34F8FFEE723EA0203FA
:1026100040F8043C00F0D4FD084A54F8043C11682A
:10262000A4F108000B441360FFF720FFBDE8104041
:1026300000F048BE10BD00BFA03C0020A43C00201C
:1026400010B50446FFF7C6FDA46BFFF7E5FDB4FA2D
:1026500084F0400910BD70B51546026C866B0446C7
:1026600042B905689DB9406801F000F8656001361F
:10267000A66370BD6DB9806809F00FFCA368226C79
:1026800013446268A360934201D32368A3600020CF
:10269000EDE7C06809F001FC236CE26821685B4249
:1026A0001A448A42E2603EBF62689B18E360022DD2
:1026B000EDD10EB1013EEAE73046D8E7034610B44B
:1026C0001A6C084662B1D9685C681144A142D960AD
:1026D00024BF1968D960D9685DF8044B09F0DDBBE7
:1026E0005DF8044B704770B50446FFF773FD94F82E
:1026F000455004F124066DB2002D14DCFF2384F84C
:102700004530FFF789FDFFF765FD94F8445004F16B
:1027100010066DB2002D12DCFF2384F84430BDE8B2
:102720007040FFF779BD636A002BE7D0304600F0B8
:10273000A9FE08B100F030FF013D6DB2DCE723696E
:10274000002BE9D0304600F09DFE08B100F024FFD8
:10275000013D6DB2DEE738B50D46044640B94FF095
:10276000500383F31188BFF36F8FBFF34F8FFEE7E2
:10277000FFF730FD206CE36B2268A2604343D11861
:102780001B1A13446160E3600021FF23A16384F8F6
:10279000443084F845304DB923691BB104F1100071
:1027A00000F070FEFFF738FD012038BD04F1100085
:1027B000FFF763FC04F12400FFF75FFCF2E770B55C
:1027C0000D46064640B94FF0500383F31188BFF31E
:1027D0006F8FBFF34F8FFEE748434830FFF76AFE25
:1027E000044638B145B92060E663256401212046DE
:1027F000FFF7B1FF204670BD00F148030360F3E727
:102800002DE9FF47894601921F46044640B94FF023
:10281000500383F31188BFF36F8FBFF34F8FFEE731
:1028200000297CD1036C002B79D04FF0500383F347
:102830001188BFF36F8FBFF34F8FFEE7019E002E0D
:1028400077D04FF0500383F31188BFF36F8FBFF33E
:102850004F8FFEE7019D1DB9FFF7DEFC00204FE022
:1028600016B902A800F050FEFFF7D6FC00F0A8FC55
:10287000FFF7B0FC94F84430FF2B08BF84F8448085
:1028800094F84530FF2B08BF84F84580FFF7C4FC5F
:1028900001A902A800F044FE00283AD1FFF79AFCF3
:1028A000A66BE56BFFF7B8FCAE422CD1019904F1A1
:1028B000100000F0CDFD2046FFF715FF00F002FDEF
:1028C00038B94FF08053CAF80030BFF34F8FBFF3D1
:1028D0006F8F0126FFF77EFCA26BE36B9A4201D358
:1028E000022FB7D13A4649462046FFF7B4FE636A45
:1028F0001BB104F1240000F0C5FDFFF78DFC0120A1
:1029000004B0BDE8F0872046FFF7EDFE00F0DAFCEA
:10291000DFE72046FFF7E7FE00F0D4FC9EE7022F3A
:1029200002D1E36B012B09D100F03CFE002885D0D9
:1029300000264FF00008DFF818A0CBE74FF0500357
:1029400083F31188BFF36F8FBFF34F8FFEE700BF94
:1029500004ED00E010B5024600210120FFF72FFF33
:10296000044638B1002343600360C3601A46194629
:10297000FFF746FF204610BD2DE9F84388469146F3
:102980001F46044640B94FF0500383F31188BFF34C
:102990006F8FBFF34F8FFEE709BB036CFBB14FF0A6
:1029A000500383F31188BFF36F8FBFF34F8FFEE7A0
:1029B00004F1240000F066FD002834D0B9F1000FC6
:1029C00031D00120C9F8000086F31188BDE8F883F2
:1029D00001356DB284F8455025E00020F4E7022F60
:1029E00002D1E36B012B20D1FFF712FDEFF311862B
:1029F0004FF0500383F31188BFF36F8FBFF34F8FF6
:102A0000A26BE36B9A4201D3022FE6D194F84550B2
:102A10003A466DB241462046FFF71DFE6B1CD7D1EA
:102A2000636A002BC4D10120CEE74FF0500383F33B
:102A30001188BFF36F8FBFF34F8FFEE770B50D4660
:102A4000044640B94FF0500383F31188BFF36F8FF2
:102A5000BFF34F8FFEE7036C43B14FF0500383F396
:102A60001188BFF36F8FBFF34F8FFEE703680BB979
:102A7000436873BBFFF7CCFCEFF311864FF05003B4
:102A800083F31188BFF36F8FBFF34F8FA26BE36B9C
:102A90009A4201D3002014E094F8453001325BB231
:102AA000A2635A1C10D1636A0BB9012009E004F13A
:102AB000240000F0E7FC0028F7D0002DF5D001201D
:102AC000286086F3118870BD01335BB284F845300D
:102AD000EBE74FF0500383F31188BFF36F8FBFF321
:102AE0004F8FFEE72DE9F04385B0884601920446FA
:102AF00040B94FF0500383F31188BFF36F8FBFF3DA
:102B00004F8FFEE700297AD1036C002B77D04FF06E
:102B1000500383F31188BFF36F8FBFF34F8FFEE72E
:102B2000019E002E70D04FF0500383F31188BFF345
:102B30006F8FBFF34F8FFEE7019D1DB9FFF76CFB51
:102B4000002048E016B902A800F0DEFCFFF764FBA5
:102B500000F036FBFFF73EFB94F84430FF2B08BF34
:102B600084F8447094F84530FF2B08BF84F8457012
:102B7000FFF752FB01A902A800F0D2FCA0BB20463F
:102B8000FFF75EFD50B3019904F1240000F060FCF2
:102B90002046FFF7A8FD00F095FB38B94FF08053B1
:102BA000C9F80030BFF34F8FBFF36F8F0126FFF7D7
:102BB00011FBA56B002DBFD041462046013DFFF71C
:102BC0007DFDA56323691BB104F1100000F05AFCE0
:102BD000FFF722FB012005B0BDE8F0832046FFF798
:102BE00082FD00F06FFBE1E72046FFF77CFD00F07F
:102BF00069FB2046FFF724FD0028D7D0A0E700F0AE
:102C0000D1FC00288CD000260027DFF80490CEE706
:102C100004ED00E02DE9FF410446019140B94FF079
:102C2000500383F31188BFF36F8FBFF34F8FFEE71D
:102C3000056C45B14FF0500383F31188BFF36F8FDC
:102C4000BFF34F8FFEE700F0ADFC18B9019D002DDA
:102C500040F08C80DFF828812E460027FFF7BAFA73
:102C6000A36B9BB1013BA363236813B900F0A8FDDC
:102C7000606023691BB104F1100000F003FCFFF752
:102C8000CBFA0125284604B0BDE8F081019B63B969
:102C900045B14FF0500383F31188BFF36F8FBFF33B
:102CA0004F8FFEE7FFF7B8FAECE716B902A800F07D
:102CB0002BFCFFF7B1FA00F083FAFFF78BFA94F8D8
:102CC0004430FF2B08BF84F8447094F84530FF2B44
:102CD00008BF84F84570FFF79FFA01A902A800F029
:102CE0001FFC40BB2046FFF7ABFCF0B123683BB9AB
:102CF000FFF770FA606800F065FC0546FFF78CFA94
:102D0000019904F1240000F0A3FB2046FFF7EBFC3F
:102D100000F0D8FA38B94FF08053C8F80030BFF34C
:102D20004F8FBFF36F8F012698E72046FFF7DBFC3C
:102D300000F0C8FAF7E72046FFF7D5FC00F0C2FA2A
:102D40002046FFF77DFC0028EDD0002D9AD0FFF73C
:102D500041FA616A19B1236B1968C1F10701606812
:102D600000F0D4FC0025FFF757FA8BE74FF0500333
:102D700083F31188BFF36F8FBFF34F8FFEE700BF60
:102D800004ED00E02DE9F84389469046054640B938
:102D90004FF0500383F31188BFF36F8FBFF34F8F52
:102DA000FEE771BB036C63B34FF0500383F31188EC
:102DB000BFF36F8FBFF34F8FFEE795F8446049462E
:102DC00076B22846FFF77AFC013C731CAC6313D142
:102DD0002B690BB901200BE005F1100000F052FB4C
:102DE0000028F7D0B8F1000FF4D00120C8F8000097
:102DF00087F31188BDE8F883013676B285F8446020
:102E0000E8E7FFF705FBEFF311874FF0500383F37B
:102E10001188BFF36F8FBFF34F8FAC6B002CCCD1F9
:102E20002046E5E710B5044640B94FF0500383F360
:102E30001188BFF36F8FBFF34F8FFEE7FFF7CAF91B
:102E4000A46BFFF7E9F9204610BD40B94FF05003DD
:102E500083F31188BFF36F8FBFF34F8FFEE7806B53
:102E60007047000010B5084A002302EBC3014C680C
:102E7000844204D1002042F83300486010BD013381
:102E8000082BF2D110BD00BFE43F002010B504466E
:102E900040B94FF0500383F31188BFF36F8FBFF336
:102EA0004F8FFEE7FFF7DEFF2046BDE81040FFF73B
:102EB0008FBB0000064A13681968064B19B94FF01A
:102EC000FF321A6070471268D268D2685268F8E719
:102ED000B83C0020903D0020F8B51B4B1B4E1D68F0
:102EE0000446306804300F46FFF7F8F8334640B91F
:102EF0003168174EC96A32680120884022EA000210
:102F00003260621C07D137B1196812480431BDE83C
:102F1000F840FFF7C0B82C441A68A542546007D99E
:102F20000D4A10681968BDE8F8400431FFF7BFB8D2
:102F30000A4A106819680431FFF7B9F8084B1A6893
:102F4000944238BF1C60F8BDD83D0020B43C00203E
:102F5000603D0020B03D0020BC3C0020B83C00207B
:102F6000903D002080B5DFF85880124F124C134E70
:102F7000236843B94FF08053C8F80030BFF34F8F38
:102F8000BFF36F8FF2E7FFF725F9FB68DD68281DB7
:102F9000FFF7A4F83368013B33602368013B2360EB
:102FA000FFF73AF9286BFFF713FB2846FFF710FBF2
:102FB000DEE700BFC43D0020503D00204C3D002016
:102FC00004ED00E02DE9F84F4FEA820A80465046B2
:102FD0000F4699460B9EFFF76DFA0546002800F054
:102FE00089805420FFF766FA044600287FD0AAF1B2
:102FF000040A056355447B1E25F0070A00F13402DC
:103000000F37597802F8011B13F8011F09B1BB42B1
:10301000F7D10A9D062D28BF06254FF0000B271D6E
:10302000E5626564384684F843B0C4F848B0FFF7F9
:103030002FF8C5F1070504F11800FFF729F8C4F8C7
:103040004CB02461A561646284F850B04A464146A0
:103050005046FFF793F8206006B13460FFF7BAF8E6
:103060002C4B2D4D1A68DFF8D88001321A602E687B
:10307000002E43D12C601B68012B1DD108EB0600EC
:103080001436FEF7FAFF8C2EF8D1DFF8B890234EF5
:103090004846FEF7F2FF3046FEF7EFFF2048FEF706
:1030A000ECFF2048FEF7E9FF1F48FEF7E6FF1F4B45
:1030B000C3F800901E4B1E601E4A1F491368086823
:1030C00001331360E26A012404FA02F3034314207B
:1030D0000B6000FB02803946FEF7DDFFFFF79CF82E
:1030E000164B1B6803B12B682046BDE8F88F2846B5
:1030F000FFF76EFA4FF0FF30BDE8F88F0F4B1B68FB
:10310000002BD9D12B68DA6AE36A9A4298BF2C6007
:10311000D2E700BF4C3D0020B43C0020783D0020A9
:10312000983D0020C43D0020B03D0020B83C002068
:10313000BC3C00205C3D0020603D0020AC3D0020F8
:10314000C03C0020643D002013B5174B01930024C0
:1031500000942346802215491548FFF733FF0128C4
:1031600014D14FF0500383F31188BFF36F8FBFF377
:103170004F8F104B4FF0FF321A600F4B18600F4B00
:103180001C6002B0BDE81040FFF7BCB8013008D1A8
:103190004FF0500383F31188BFF36F8FBFF34F8F4E
:1031A000FEE702B010BD00BF8C3D002034CD00080A
:1031B000652F0008903D0020AC3D0020D83D002048
:1031C000024A136801331360704700BF583D002066
:1031D000014B1868704700BFD83D002008B5FFF7C5
:1031E00017F9014B186808BDD83D00202C4B1B680F
:1031F0002DE9F047002B2CD12A4B1C6801341C60B0
:10320000BCB9294B1A68126842B14FF0500383F3DE
:103210001188BFF36F8FBFF34F8FFEE7234A196802
:10322000106818601160224A136801331360FFF7B9
:1032300041FE204D2B689C420FD31B4FDFF87C8052
:10324000DFF87CA03B681B6853B94FF0FF332B605D
:1032500003E0194A1368013313600020BDE8F087CA
:103260003B68DB68DE6873689C42F0D306F10409B2
:103270004846FEF733FFB36A1BB106F11800FEF7AC
:103280002DFFF26AD8F800100123934014200B435D
:1032900000FB02A04946C8F80030FEF7FCFED1E76B
:1032A000583D0020D83D0020B83C0020BC3C002008
:1032B000943D0020903D0020543D0020603D0020C2
:1032C000C03C00202DE9F8432A4C236843B94FF055
:1032D000500383F31188BFF36F8FBFF34F8FFEE767
:1032E000FEF778FF2368013B23602468DCB9224B9A
:1032F0001B68C3B1DFF89490204FDFF89480D9F8B1
:103300000030ABB90CB1FFF7D5FD1D4D2C6844B1B1
:103310001C4E0127FFF76AFF00B13760013CF9D16D
:103320002C60184B1B68FEF777FF0020BDE8F88380
:10333000D9F80C30DC68261D04F11800FEF7CEFE2B
:103340003046FEF7CBFEE26A3968012505FA02F342
:1033500014200B4300FB028031463B60FEF79BFECE
:10336000094BE26A1B68DB6A9A4224BF054B1D6069
:10337000C5E700BF583D00204C3D0020603D0020C7
:10338000543D0020DC3D0020B43C0020983D00204E
:10339000C03C002008B540B90E4B4FF080521A6077
:1033A000BFF34F8FBFF36F8F08BD0B4B196841B14F
:1033B0004FF0500383F31188BFF36F8FBFF34F8F2C
:1033C000FEE7FFF7FDFEFFF787FDFFF77BFF002815
:1033D000E2D008BD04ED00E0583D0020174B1A680C
:1033E000174B10B512B101221A6010BD1A60154BAF
:1033F0001B68B3FA83F3DBB2C3F11F031422124933
:103400005A4388188C5844B94FF0500383F31188FD
:10341000BFF36F8FBFF34F8FFEE7446808326468D5
:1034200044600A44944204BF62684260142202FB72
:1034300003135B68DA68054BD6E700BF583D0020F0
:10344000DC3D0020603D0020C03C0020B43C00205A
:1034500010B50C4640B94FF0500383F31188BFF309
:103460006F8FBFF34F8FFEE7054B19681831FEF7DA
:103470001EFE20460121BDE81040FFF72DBD00BF14
:10348000B43C002038B5C368DC6844B94FF0500341
:1034900083F31188BFF36F8FBFF34F8FFEE704F103
:1034A00018052846FEF71AFE114B1B68E3B9251DC7
:1034B0002846FEF713FE0F49E26A0868012393408D
:1034C00003430B600C4B1420294600FB0230FEF72F
:1034D000E2FD0A4BE26A1B68DB6A9A4283BF084B33
:1034E00001201860002038BD29460648EFE700BFDC
:1034F000583D0020603D0020C03C0020B43C00202E
:10350000DC3D0020983D0020034B1B680360034B0B
:103510001B684360704700BF943D0020D83D0020E9
:1035200070B50C46054640B94FF0500383F311883F
:10353000BFF36F8FBFF34F8FFEE741B94FF05003DA
:1035400083F31188BFF36F8FBFF34F8FFEE7FEF752
:1035500041FE0F4B69681A682368581C0ED00D484D
:103560002E680068864201D08A420ED2521A9A42D0
:1035700009D29B1A23602846FFF7C6FF0024FEF7F6
:103580004BFE204670BD002323600124F7E700BFF7
:10359000D83D0020943D0020014B01221A60704765
:1035A000DC3D0020054B1B6833B1054B1B68002B2D
:1035B0000CBF02200020704701207047AC3D002066
:1035C000583D00202DE9F0410446002841D0244A0E
:1035D000C36A1168C96A8B42174631D28269214D8C
:1035E000002AA1BF3A68D26AC2F10702826114269A
:1035F000426906FB03539A422DD100F1040840466C
:10360000FEF76CFD184B48B9E06A4643AA592AB93F
:103610001A680121814022EA01021A603A68196899
:10362000D26AE262012404FA02F00843186014200E
:10363000414600FB0250FEF72EFD0120BDE8F0815F
:103640001368406CDC6AA0422CBF00200120BDE85A
:10365000F081BDE8F0813B68DB6AC362EDE700BF43
:10366000B43C0020C03C0020603D0020F8B504467A
:1036700008B90020F8BD224B1B68984208D04FF0D3
:10368000500383F31188BFF36F8FBFF34F8FFEE7B3
:10369000836C43B94FF0500383F31188BFF36F8FEE
:1036A000BFF34F8FFEE7C16A426C013B91428364D6
:1036B000DFD0002BDDD1051D2846FEF70FFD114E92
:1036C000114A50B9E76A1421794373582BB913682A
:1036D0000120B84023EA00031360636CE362C3F186
:1036E0000701A1611168012404FA03F00843106086
:1036F000142000FB03602946FEF7CDFC2046F8BDF0
:10370000B43C0020C03C0020603D0020F8B50446D9
:1037100000284DD0826C42B94FF0500383F31188DA
:10372000BFF36F8FBFF34F8FFEE7436C994238BFF3
:103730001946C36A8B423BD0012A39D11D4A12680F
:10374000904208D14FF0500383F31188BFF36F8F7D
:10375000BFF34F8FFEE78269174DC162002A4FF019
:1037600014064269A8BFC1F1070106FB0353A8BFB5
:1037700081619A421CD1071D3846FEF7AFFCE26A10
:103780000E4C40B95643AB592BB9236801219140E7
:1037900023EA010323602168012393400B43142093
:1037A0002360394600FB0250BDE8F840FEF773BCC9
:1037B000F8BD00BFB43C0020C03C0020603D0020AC
:1037C000044B1A681AB119688A6C01328A64186845
:1037D000704700BFB43C00200A6810B50C320C469C
:1037E00001F026FE08B994F9040010BD7FB558B960
:1037F0000B4B0C490C484FF44A7208F061FB6FF018
:103800000F0007B05DF804FB01908DF80C10292320
:1038100001A906488DF80D30FFF7DEFFF1E700BF84
:1038200039CD00086BCD000887CD0008394B000862
:1038300070B586B00023044600930E4651B93E4B46
:103840003E4940F2E7123E4808F03AFB6FF00F00A5
:1038500006B070BD0B6020B9374B3A4940F2E9120F
:10386000F1E7054615F8103B03F0F003102B0ED1DD
:10387000284607F06CFC50B904F1140007F067FC0F
:10388000002814BF6FF00A006FF00E00E0E7284632
:1038900007F05DFC48B9284B2B49294840F2F51246
:1038A00008F00EFB6FF00A00D2E794F9080010F15F
:1038B0000C0FCDDB00226946284607F015FC237863
:1038C00003F0F003102B009B2AD10194ABB11B89AC
:1038D0001E48039301A9FFF77FFF009AB2B9A36ABC
:1038E00013B1012120469847636843B994F9080051
:1038F000002808BF6FF00D00AAE70123E8E70121C7
:103900002046FFF773FF6FF00E00A1E71289A36A4C
:1039100013B1012120469847009B3360002097E7B0
:1039200033B9054B0A49064840F23E2208F0C8FA6E
:10393000009B1B681A89EAE739CD0008B8CE000859
:1039400087CD0008D6CE0008F1CE00089F490008B8
:1039500010CF000870B50D4686B0114600F024FE69
:10396000044600283FD006A98DF80C5041F8140DEC
:103970001E48FFF731FF002835D063682BB11C4B80
:103980001C491D48892208F09BFA04F110052846BD
:1039900007F0DDFB28B9164B184917488A2208F0B2
:1039A0008FFA04F1140007F0D2FB28B1104B144930
:1039B00011488C2208F084FA04F10C06304607F016
:1039C00007FC28B90A4B0F490B488F2208F078FAF8
:1039D000304607F0FAFB284607F066FB2146072031
:1039E00003F084FA0024204606B070BD2545000887
:1039F00039CD000848CE000887CD000869CE000800
:103A00007ECE00089FCE000830B5044687B078B15E
:103A10000190292301A907488DF80D30FFF7DCFE3E
:103A2000054610B9204600F005FE284607B030BD17
:103A30000546FAE74D4700087FB550B90F4B1049CE
:103A4000D922104808F03CFA6FF00F0007B05DF87B
:103A500004FB19B9094B0C49DA22F2E71AB9074BF2
:103A60000A49DB22EDE70190039109488DF81430F3
:103A700001A90492FFF7B0FEE8E700BF39CD0008C6
:103A8000EECD000887CD00080CCE00082ACE000835
:103A90009D4A00087FB558B90C4B0D490D4840F2BE
:103AA0002B1208F00DFA6FF00F0007B05DF804FB61
:103AB000094B0190002908BF194603910748ADF84A
:103AC000102001A9FFF788FEEFE700BF39CD0008FD
:103AD000AFCD000887CD0008ECD8000835480008B5
:103AE0007FB558B9094B0A490A4840F24B1208F011
:103AF000E7F96FF00F0007B05DF804FB06A941F885
:103B0000140D0548FFF768FEF5E700BF39CD000842
:103B1000CDCD000887CD0008F148000808B540B1B8
:103B2000037803F0F003102B03D1BDE80840FFF742
:103B30007FBE054B0549064840F25E2208F0C0F9F9
:103B40006FF00F0008BD00BF39CD0008D6CE0008C9
:103B500087CD000873B505460E4659B9204B21495B
:103B60004FF41D72204808F0ABF96FF00F0528469E
:103B700002B070BD00220A6020B9194B1B4940F207
:103B80007622EFE7037803F0F003102B24D1062010
:103B9000019203F08FF90446D8B1284601A9FFF736
:103BA00047FE054620B12146062003F09FF9DEE7D7
:103BB000019B33B90A4B0E490B4840F28A2208F0A8
:103BC0007FF9019B236063600023A381A3603460BD
:103BD000CDE74FF0FF35CAE7FFF72AFE0546C6E7F7
:103BE00039CD0008B8CE000887CD0008D6CE000831
:103BF000FBE000087FB558B9094B0A490A4840F272
:103C0000C32208F05DF96FF00F0007B05DF804FB08
:103C100001900391054801A9FFF7DEFDF5E700BF1C
:103C200039CD00081CCF000887CD000835490008B1
:103C300070B586B015460A9C50B91D4B1D491E48EB
:103C400040F2E62208F03CF96FF00F0006B070BDBC
:103C5000027802F0F002102A09D0154B17491648D5
:103C600040F2E72208F02CF96FF00500EEE70DB9FD
:103C70000020EBE7027F920713D4C3F380068EB9CE
:103C8000019003910E488DF8143001A90495FFF7B7
:103C9000A3FD0028DAD1002CEAD036B1049B2360C2
:103CA000D4E70126002CEBD1DEE72560CEE700BF8C
:103CB00039CD000837CF000887CD000853CF000862
:103CC000FD4900082DE9F047064617461D46BDF898
:103CD00020900C4629B9224B22492348B12208F0F2
:103CE000EFF88EB91E4B21491F48B22208F0E8F8C0
:103CF0003846BDE8F04703F07FBAB36A73B32A468B
:103D00003046BDE8F047184773689C4205D0144B15
:103D100017491548BA2208F0D3F806F110084046B2
:103D200007F015FA0028E3D0062003F0C3F8044694
:103D30000028DDD00760476005B12D68A5602146E9
:103D4000A4F80C9040463D8907F0C4F901460028CC
:103D5000D3D02046BDE8F04700F044BFBDE8F0876F
:103D6000E6D2000818D3000887CD00083AD300082F
:103D700059D3000810B544680146204603F01AFEE6
:103D80002046094903F01AFE2046084903F02EFE9A
:103D900020460749022203F05DFE20460549BDE8A2
:103DA000104003F039BE00BFF5430008B9440008D5
:103DB0007D430008793E0008F8B516460446002801
:103DC0004DD04378032B06D0264B274927484FF484
:103DD000936208F075F8636A4BB9237F5B0706D4DA
:103DE000204B2349214840F29A4208F069F8656A5D
:103DF00015B12E712D680C35237803F0F003102BCC
:103E000003D116B92046FFF7B5FF207F20F0040349
:103E100010F00406237708D14DB9124B1549134809
:103E200040F2A74208F04CF801E0002DF5D1002740
:103E30006762677007F008FA94F908300C33A8BF7E
:103E4000277207F00DFAA36A1BB100220221204657
:103E5000984716B9284607F0B5F90020F8BD6FF06D
:103E60000500F8BDE6D200085CD0000887CD000848
:103E70007BD00008B8D000082DE9F0410E4604467A
:103E800030B9414B414942484FF4C27208F018F82A
:103E900065780027042D6760677062D107F0D4F958
:103EA00094F908300C33A8BF277207F0D9F900261F
:103EB000A36A1BB10022042120469847A36A1BB1C4
:103EC0000022114620469847A36A1BB10022022116
:103ED0002046984704F11007384607F038F918B122
:103EE0000021384607F0F6F804F11407384607F0C9
:103EF0002EF918B10021384607F0ECF8012D02D058
:103F0000033D012D33D8237F23F004025B07227782
:103F100038D4636A33B91C4B1E491D4840F2B312B2
:103F200007F0CEFF636A1D681E710C35284607F046
:103F30004FF930B9144B184915484FF4DB7207F0AC
:103F4000BFFF0023636207F07FF994F908300C3358
:103F5000A8BF267207F084F92846BDE8F04107F0B3
:103F600031B907F071F9267207F07AF9A0E7636AB0
:103F700043B1054B0949064840F2BD12BDE8F04186
:103F800007F09EBFBDE8F081E6D2000875CF0008BB
:103F900087CD000882CF00089CCF0008B5CF00086D
:103FA0002DE9F041044630B96F4B7049704840F23A
:103FB000E35207F085FF6378012B06D06A4B6D4909
:103FC0006B4840F2E45207F07BFF636A33B9664BFB
:103FD0006949674840F2E55207F072FF636833B9F8
:103FE000614B6649624840F2E65207F069FF636A36
:103FF000226ADB689A4206D35B4B61495C484FF406
:10400000BD6207F05DFF636A227F99681E7C90079E
:10401000226A606801EB0208D968B0F86050A1EB31
:10402000020354BFC6F380070127B3F5803F2ABFC0
:104030004FF6FF739BB246F00206AB425BD9002FEE
:1040400056D0002D59D02A44914206D2464B4D49B4
:10405000474840F2136207F033FF33462A46414691
:10406000606805F03BFE431CDBB2012B064666D8B8
:10407000002F45D0636ADB689D4241D2A36A1BB121
:104080002A46032120469847237F43F010032377D5
:10409000002E49D1236A1D44636A2562DA6895427D
:1040A00001D0002F3ED0DD600125606806F09CF94C
:1040B00010F10C0F01DB011D4DD1636A0022DA60A3
:1040C0000646636A1D681E710C3500236362236215
:1040D000637007F0B9F894F908300C33A8BF267262
:1040E00007F0BEF8284607F06DF80020BDE8F08123
:1040F00046F00206A7E71D46A5E76FF00606B9E7FA
:104100006368B3F86020B2F5866F03D3B3F862300A
:10411000042BBDD9A36A002BBAD02A46032120461E
:104120009847B5E73546C0E7721C08D1606806F0CD
:104130005BF910F10C0F064601DB031D03D1636A26
:104140000022DA60BDE7002FCFD0636A0022DA6078
:104150006FF00606B5E7002DC7D0626A1568002328
:104160000C351371B2E700BFE6D2000875CF000826
:1041700087CD00082DD1000882CF00084AD1000861
:1041800060D1000892D100082DE9F047044630B90B
:104190006F4B7049704840F2433207F091FE23782C
:1041A00003F0F003102B06D0694B6C496A484FF4BA
:1041B000517207F085FE6378042B06D0644B684982
:1041C000654840F2453207F07BFE636833B9604BC7
:1041D0006449614840F2463207F072FE636A33B9BF
:1041E0005B4B61495C4840F2473207F069FE636A05
:1041F00065681B7A032B03F0010903F0020800F045
:104200008180B9F1000F05D02B7D5A1F012A79D981
:10421000082B77D0B8F1000F11D0AF7E17F0100740
:1042200070D12B7D012B0CD10021284603F00CFC12
:1042300027BB42464946284603F0BEFF21E04746D9
:10424000EFE7B9F1000F07D00021284603F0B6FBD5
:104250000021284603F0F8FBB8F1000F03D000213D
:10426000284603F0C3FB002FE3D000221146284666
:1042700003F0F0FB0021284603F0CEFB284603F0B4
:10428000F9FE064660B1431C0AD1636A93F809A09F
:10429000BAF1000F3CD11FB1284604F029F8564668
:1042A000636A1D681E71002363626370CEB937B103
:1042B000A36A66601BB13246042120469847B9F1D3
:1042C000000F05D0A36A63B100221146204698472B
:1042D000B8F1000F05D0A36A1BB1002202212046CD
:1042E000984706F0B1FF94F908300C33A8BF267246
:1042F00006F0B6FF05F10C0006F064FF002630461C
:10430000BDE8F0870021284603F054FB012788E729
:104310002B7D012B06D10E4B14490F4840F2E3329E
:1043200007F0CEFDB8F1000F03D01149284603F085
:104330005DFB012228460F4903F08CFB28460E49FD
:1043400003F06AFB2146284603F034FBD7E700BFA1
:10435000E6D200082ACF000887CD0008CFCF00089A
:10436000EDCF000811D0000882CF000824D000084B
:10437000B94400087D430008793E000810B50446A2
:1043800030B9194B19491A484FF49C7207F098FD3F
:104390006378012B1BD12046FFF702FE237FDA064C
:1043A00013D562688AB1B2F86010B1F5866F0CD38C
:1043B000B2F86220042A08D823F010032377A36AF6
:1043C0001BB10022022120469847002010BD042B7B
:1043D000E4D1626A1AB1537A0BB1013B53722046A1
:1043E000FFF7D2FEDAE700BFE6D2000875CF00087B
:1043F00087CD00082DE9F8430546164698460F4636
:1044000029B9284B28492948F92207F059FD9DBBB5
:10441000244B27492548FA2207F052FD6FF0050486
:104420002046BDE8F8833846318903F059FA304612
:1044300002F0E2FEF4E7B8F1000F09D006F004FF45
:1044400095F908300C33A8BF85F8088006F008FFFE
:104450006EB137893146484606F03CFE044640B905
:10446000AB6AEBB101463A4628469847D8E737464B
:10447000F0E74FF0FF34D3E76B689F4206D0094B5B
:104480000C490A484FF4807207F01AFD05F1100933
:10449000484606F05CFE04460028CCD1002EC2D16E
:1044A0000024BDE7E6D2000887D2000887CD0008C7
:1044B000A9D20008C8D2000838B51546044668B924
:1044C000154B1649164840F2611207F0F9FC00201E
:1044D00038BD042B07D1FFF757FE04E04378012BCA
:1044E000F7D1FFF75DFD6368002BF0D0B3F86020D3
:1044F000B2F5866FEBD3B3F86230042BE7D8237F95
:1045000023F010032377A36A002BE0D02A46022170
:1045100020469847DBE700BFE6D2000875CF0008C9
:1045200087CD000838B50023056803710446686824
:1045300028BB2B7803F0F003102B14D0202B1CD1B8
:1045400006F006FD68602268506850B1137815497E
:10455000222B04BF0123037406F0D0FC23685B68A0
:104560006BB9FF230AE003F08DFF686020684368A1
:10457000002BF6D0FFF7FEFBF0E7FA232371236848
:1045800053B106F061FE236893F908200C32A4BFF2
:1045900022791A7206F064FE2068BDE838400C30BB
:1045A00006F010BEC53C0008F8B5054607200F46CA
:1045B00002F080FC0446A8B3057005F0F005002366
:1045C000102D037243600ED0202D0CD0164B1749CE
:1045D00017484FF42A7207F073FC2146072002F0B7
:1045E00085FC00241EE004F110060621304606F08A
:1045F0004BFD01460028F0D104F10C0006F0AFFDA0
:10460000054618B1304606F04FFDE6E704F1140008
:1046100006F0A2FD4FF0FF336570A361A7626562EB
:10462000256225772046F8BDE6D20008BDD10008F6
:1046300087CD000838B54368044633B1164B174997
:1046400017484FF4387207F03BFC04F1100006F0F5
:104650007EFD30B1104B1349114840F2E22207F0C1
:104660002FFC04F1140006F072FD30B10A4B0E4924
:104670000B4840F2E52207F023FC04F10C05284624
:1046800006F0A3FD284606F0A8FD21460720BDE858
:10469000384002F02BBC00BFE6D20008E3D100088E
:1046A00087CD000811D200084BD2000873B500F185
:1046B00010050446284606F04AFDB0B914342046D9
:1046C00006F045FD00283DD102B070BD237803F00F
:1046D000F003102B16D1019E3EB1606810B13189F4
:1046E00003F0FEF8304602F087FD01A9284606F0E7
:1046F0001DFD0130EAD1284606F0D6FC284606F01A
:104700002BFDDBE7019800F06DFAEEE7019DB54265
:104710000BD02846FFF7CAFF686818B103F0E8FD20
:1047200000236B602846FFF785FF01A9204606F0AD
:10473000FDFC0130EAD1204606F0B6FC204606F02A
:104740000BFDC1E7004EF0E72440002038B50368B8
:104750005D7804466DB11B7803F0F003102B06D092
:10476000304B3149314840F2014207F0A9FB022D9C
:1047700021D1002520682571FFF798FF236858682C
:1047800060B11A7802F0F002102A34D0202A02D147
:10479000C56106F0B7FB236800225A602068836A6F
:1047A00013B10022114698472068836A5BB100224A
:1047B0000221984707E0032D03D123681B7F5B0785
:1047C000D7D4FB23237120680C3006F001FD38B3E9
:1047D000236853B106F038FD236893F908200C32A2
:1047E000A4BF22791A7206F03BFD2068BDE838406C
:1047F0000C3006F0E7BC5A6A0AB91B6A33B1094BA0
:104800000B490A4840F2354207F05AFB206804235E
:104810004370032323724462BDE83840FFF7B4BC01
:1048200038BD00BFE6D20008D5D0000887CD00080B
:10483000E9D0000810B503680446586810B9F123A0
:1048400023710BE01A7802F0F002102A19D0202A06
:104850003CD1A289A16806F021FB2071236853B1E5
:1048600006F0F2FC236893F908200C32A4BF2279E9
:104870001A7206F0F5FC2068BDE810400C3006F016
:10488000A1BC5A78032A01D1F723D9E70AB1F6234C
:10489000D6E71846FFF76EFA2068114BA289A16887
:1048A000406803F00FFE20710028D7D12268137FE3
:1048B00003215170990704D543F004031377FB23B8
:1048C000BEE723F004031377546210BD054B06497D
:1048D000064840F2F24207F0F3FAFA23B0E700BFCD
:1048E000B93D0008E6D2000847D0000887CD00088F
:1048F0000268137803F0F003202B10B5044617D19B
:10490000506806F0F3FA00232371236853B106F0D0
:104910009BFC236893F908200C32A4BF22791A72F9
:1049200006F09EFC2068BDE810400C3006F04ABC42
:10493000FA23E9E710B5036893F9082012F10C0F88
:10494000044613DA0271236853B106F07DFC236834
:1049500093F908200C32A4BF22791A7206F080FC69
:104960002068BDE810400C3006F02CBCF522027126
:1049700058680028E7D01B7803F0F003202BE2D121
:10498000A1688B6823B9096806F07EFA2071DAE71E
:104990008B8901F10802096806F05CFAF6E7F8B5C0
:1049A0000023037103685A6804463AB92368CBB9F7
:1049B0002068BDE8F8400C3006F004BC1B7803F01A
:1049C000F003102BF2D185684FF6FF77BD422368C4
:1049D0002E4628BF3E46B1B2586802F081FFAD1B9B
:1049E000F4D1E3E706F030FC236893F908200C3299
:1049F000A4BF22791A7206F033FCD9E710B5036818
:104A000093F9082012F10C0F044611DA027106F036
:104A10001BFC236893F908200C32A4BF22791A7278
:104A200006F01EFC2068BDE810400C3006F0CABB42
:104A30001A7802F0F002102A26D15A7812B1FB231C
:104A40002371E4E75A68EAB101225A705A6A0AB936
:104A50001B6A33B10D4B0E490E4840F2836207F0DA
:104A60002FFAE36833B9094B0B490A4840F28462D4
:104A700007F026FA2068002344620362BDE8104074
:104A8000FFF78EBAF523DBE7FA23D9E7E6D2000871
:104A9000E9D0000887CD000819D1000838B50168B1
:104AA0004B680446BBB1027C80687AB11D68056022
:104AB00000202071097801F0F001102923D020296D
:104AC0002CD12AB1E2685B8A138006E05D68EEE7CC
:104AD0001A7C520714D4F5232371236853B106F0CE
:104AE000B3FB236893F908200C32A4BF22791A7211
:104AF00006F0B6FB2068BDE838400C3006F062BB1B
:104B0000E2689B8AE0E712B9197D0129E3D9E168DF
:104B100012B1DB8A0B80E0E71B8BFBE7034B0449F8
:104B2000044840F2DD6207F0CBF9D6E7E6D2000890
:104B300004D1000887CD000810B50446006843681A
:104B400063B1037803F0F003102B07D1227A437886
:104B5000032A01D0022B01D0032B12D1F52323719C
:104B600006F072FB236893F908200C32A4BF227967
:104B70001A7206F075FB2068BDE810400C3006F094
:104B800021BB012B01D1FB23E9E7D30701D5FFF7B7
:104B90008DFD23685A6A0AB91B6A33B1074B08496D
:104BA000084840F21C7207F08BF920680423446225
:104BB0004370BDE81040FFF7E7BA00BFE6D2000837
:104BC000E9D0000887CD000800F11003DBB2102BFC
:104BD0009DBF4042024B53F820000520704700BFA4
:104BE00078D3000810B5044660B1006820B102F027
:104BF00003FB00236360236021460620BDE81040CC
:104C000002F074B910BD000010B5044638B9084B65
:104C1000084909488122BDE8104007F051B90068F1
:104C200008B102F0E9FA00236360236010BD00BF01
:104C3000BCD300082BD4000887CD000870B50E4601
:104C40001546044640B90F4B0F491048952207F00E
:104C500037F96FF00F0070BD006808B102F0CCFAB0
:104C600000210222084602F031FB206018B9606082
:104C70004FF0FF3070BD46600581458160600020C7
:104C800070BD00BFBCD3000844D4000887CD000825
:104C9000032804D9064B09221A6000207047142308
:104CA000044A4343D018D358002BF3D0704700BFB9
:104CB00048770020E83D00202DE9F84FDFF86CB080
:104CC00080460E4600254FF0140AD9460AFB05F42B
:104CD00006F0BAFA54F80B300246F3B95C44677C2C
:104CE000DFB9C4F8008006F0BBFA98F800306760BE
:104CF00003F0F003102B278167810CD1003618BF19
:104D00000126142303FB059300229E81DA811A7485
:104D10002846BDE8F88F0126F3E71046013506F076
:104D20009FFA042DD2D14FF0FF35F1E7E83D002086
:104D30002DE9F84F0E460446002800F0858085696D
:104D4000002D0FDA06F080FAA569002D034607DA78
:104D50000EB9013DA5611846BDE8F84F06F080BACE
:104D600006F07EFA2846FFF793FF044600286BD032
:104D700006F06AFA0746042E16D8DFE806F0030AA2
:104D80000D101200638901336381637CA3B9384637
:104D9000E2E76389013BF7E70123A381F5E70023FD
:104DA000FBE70123E381F0E7284B2949294840F23A
:104DB0005D6207F085F8E8E74FEA551B012305F02F
:104DC0001F05DFF8988003FA05F5234B1E684FF0A6
:104DD0000109002EDBD07369D8F800A0FBB9B4F943
:104DE0000A20002A07DDB2682AB152F82B301D4292
:104DF00014BF01230023A28942B13BB9F2682AB152
:104E000052F82B301D4214BF01230023E28992B1D6
:104E10009BB933691BB153F82B301D420DD1384675
:104E200006F01EFA06F010FAD8F800309A45074648
:104E3000CBD13668CDE7002BF1D0C6F8149006F13F
:104E4000180006F0BFF9EAE7BDE8F88F5CD4000867
:104E50008ED4000887CD0008E43D0020E03D00200E
:104E600037B51546FFF714FF044618B94FF0FF3069
:104E700003B030BD4B782BB90068FEF731FE80B926
:104E80002074F5E7102D03D1022B01D18B0710D030
:104E90000E4B0F490F4840F29F2207F011F86FF0B8
:104EA0000F00FFF791FE20740028DFD00A4B186036
:104EB000DCE702AD4B68488845F8043D00F01EFB76
:104EC000294602462068FEF7E5FDD8E75CD40008D5
:104ED0009CD4000887CD0008487700202DE9F04FCA
:104EE0008BB00025009191469A46DDF854B00495A8
:104EF000FFF7CEFE0446002863D06368002B4ED037
:104F00000493236800991B7803F0F003102B049B93
:104F100014BFD3F8008098462389B8F80860F61AC1
:104F2000B6B2B14594BF1FFA89F7374629443A46CD
:104F3000404602F009FC23681B7803F0F003102BB5
:104F40003D4440F08880B94506D25E4B5E495F48DB
:104F500040F2433206F0B4FFB9EB07097BD098F872
:104F60000D30DB0777D4B4F90A30002B73DD1AF06B
:104F7000010870D11AF0010F0DD123681B7803F0DE
:104F8000F003102B5AD1F61B002E57DD049B6360F3
:104F900023891F442781B8F1000FAED00BE01AF02F
:104FA000080F03D123681B7F9A070DD5B4F90A3087
:104FB000002B09DC15B10023237428E0444B0B229D
:104FC0001A604FF0FF3522E02068037803F0F00309
:104FD000102B04A90DD1FEF7A1FD0646D8B15DB195
:104FE00010F10F06E7D1002211462068FFF7A0FE5E
:104FF000E1E7FEF7AFFDF0E7FFF7E6FD207408B14B
:10500000334B186016F10F0518BF01256D42284675
:105010000BB0BDE8F08F049B33B92A4B2D492B48C8
:1050200040F2273206F04CFF049B636069E7049B63
:105030009A89ADF80E2003F108081FE00026102B16
:1050400066602681049803D102F0D6F80496A2E7A0
:10505000FFF7C8FDFAE7149B83B3BBF1000F2DD017
:105060002068037803F0F003102BE0D100230DF14A
:105070000E0205A9FEF7E0FC0DF114081023022230
:10508000BDF80E008DF8183001938DF8192000F04E
:1050900035FAD8F800200792002208920992DBF82E
:1050A0000020ADF81A00102A84BF019BCBF8003015
:1050B000DBF80020149806A906F0EFFE4FF0010877
:1050C00058E700BF5CD40008BAD4000887CD0008B8
:1050D0004877002010CF000813B5002401940094F5
:1050E000FFF7FCFE02B010BD2DE9F04385B081460C
:1050F0000F46154619460C9CDDF83480FFF7C8FDB5
:10510000064610B94FF0FF300BE003681A7802F042
:10511000F002102A08D10B462A463946484600F0CC
:105120005DF805B0BDE8F083B5F5803F06D3264BAA
:105130002649274840F27B4206F0C2FE14B9B8F176
:10514000000F18D0B8F1100F04D16378022B01D1F1
:10515000A30710D01C4B1F491D484FF4906206F066
:10516000AFFE6FF00F00FFF72FFD30740028C9D09D
:10517000194B1860C6E700230193009304B36368DA
:105180006088029300F0BAF9ADF80C00AAB2394673
:105190006846FFF753FD044620B969463068FEF7BC
:1051A00029FD04466846FFF72FFD2046FFF70CFD5A
:1051B000307408B1084B1860002CA3D1A8B2B0E736
:1051C00002942046E0E700BF5CD40008DFD400086A
:1051D00087CD000803D5000848770020F0B585B0DA
:1051E000074616461D46FFF753FD044618B94FF013
:1051F000FF3005B0F0BD0068037803F0F003102B1A
:1052000008D000230193009332462B463846FFF71F
:105210006BFFEEE715F0100F14BF0322012215F00B
:10522000080F04AD4FF0000745F8047D14BF0423B8
:105230000023134300953246FEF7FAFC0546FFF7BC
:10524000C3FC207408B1034B1860002DCFD1039824
:10525000CFE700BF48770020022938B5134610D0A9
:10526000032905D0012914D1154A0021102002E09C
:10527000134AD9B24020FEF76DFB044680B969227B
:1052800008E0882A4FF000010D4A0CBF21202020A1
:10529000F1E716220B4B4FF0FF351A60284638BD58
:1052A0000021FFF709FD431C054606D12046FEF705
:1052B000ABFB044B17221A60F0E7A061EEE700BFDA
:1052C000314D0008487700201E4B1B6883B513B191
:1052D0001D4A106898471D4F1D4D1E4C01A93846A8
:1052E00005F002FC019B33B92B46692221461A487E
:1052F00006F0E6FDF2E71A78042A20D8DFE802F08B
:105300001B030D151B009E685B6830469847307084
:10531000019BD86805F056FFE0E7181D07C89047C5
:105320000199092001F0E2FDD8E798685A68904792
:1053300001990820F6E75A6898689047CEE72B460F
:105340009B22D3E73C3E0020403E0020383E002018
:1053500077D50008A7D5000887CD0008F8B507461F
:1053600010480E46154605F0F2FE28B90E4B0F49BF
:105370000F48B52206F0A4FD092001F09BFD04466C
:1053800068B10223037047608660C5600146054826
:1053900005F0A0FE28B12146092001F0A7FD4FF03D
:1053A000FF30F8BD383E002077D5000850D5000802
:1053B00087CD000891F82B3013F0180F14BF024A64
:1053C000024AFFF7CBBF00BF81AF0008815E000833
:1053D000F8B5074612480E46154605F0B8FE28B93E
:1053E000104B11491148EE2206F06AFD082001F029
:1053F00061FD044688B1032303704760866001465F
:1054000007481DB105F05AFE0020F8BD05F062FE08
:1054100028B12146082001F069FD4FF0FF30F8BDAA
:10542000383E002077D5000850D5000887CD000809
:10543000F0B5074685B010460E46154605F0C8FE85
:1054400030B9114B114912484FF4AA7206F038FDD9
:10545000104805F07CFE30B90B4B0F490C4840F268
:10546000551206F02DFD002469460A488DF80040CB
:105470000197029605F022FE2146284605F087FE98
:10548000204605B0F0BD00BF77D500085DD5000807
:1054900087CD0008383E002050D5000837B50546B6
:1054A0000C4600F030F80D4B0D481D600D4B0621E9
:1054B0001C6005F0E9FD30B10B4B0C490C4840F283
:1054C000D51206F0FDFC0323009300224FF4806305
:1054D0000849094805F0A7FE03B030BD3C3E002056
:1054E000383E0020403E002077D5000820D5000837
:1054F00087CD0008C952000843D5000840BA80B2E1
:10550000704700BA704708B505F06AFE01F05EFA10
:1055100001F0C2FC01F00DFD05F02CFB02F0B2F928
:10552000BDE8084005F0B6BA70B51826074C4643EA
:105530000546A05918B101F05FFE0023A3511823BE
:1055400003FB05440023237570BD00BF443E0020CB
:105550002DE9F3470B9D894692469846074630B998
:105560002C4B2D492D484FF48B6206F0A9FC0022EC
:105570001C21022001F0AAFE0646002847D04389DC
:105580001B2B06D8234B2649244840F2644206F0E0
:1055900097FCBDF834007468FFF7B0FFE08097F81F
:1055A0002430062B06D01B4B1E491C4840F26B4290
:1055B00006F086FCD8F80030A360B8F80430A38168
:1055C0002B68C4F81230AB88E3820A9B1B68C4F8CE
:1055D0000E300C9B1B68A361012363700823A3702A
:1055E0000623237104230025637140F6060325700A
:1055F000E5704A46009331465346384605F00CFDA7
:10560000304601F0F9FD284602B0BDE8F0874FF0C2
:10561000FF30F9E7BAD60008F1D6000887CD0008B8
:10562000FFD6000830D700082DE9F74F3E4B019117
:105630000A22054600209446144681468046834649
:1056400096461E46BEF10A0F1F7D12D19FB94FFA32
:1056500080FE01300A2803F11803F3D1019B99075A
:1056600004D4BEF10A0F1CD1DB0735D44FF0FF3054
:1056700009E0002FEDD0002D4AD029688A465968EC
:105680008A4545D140B203B0BDE8F08FC245E0D3B2
:105690004FFA80FCD046DCE7CA4524BF44B2D1466D
:1056A000D7E75FFA8EF7182303FB07631B7D33B13F
:1056B0001E4B1F491F4840F2871206F001FC25B11E
:1056C000182303FB07632A685A60182303FB076645
:1056D0000023738278B2D6E70A2C0FD01823E7B2E2
:1056E0005C43335933B1114B1349124840F26F12E6
:1056F00006F0E6FB3846FFF717FFD4E7BCF10A0FC8
:1057000002D05FFA8CF7F5E70A2AAFD0D7B2F1E7FB
:10571000012FB3F812A0BFD11F68002FB6D0DA4511
:1057200097D342B2D34694E7443E0020BAD600084D
:10573000DCD5000887CD0008C5D5000870B5084D38
:10574000064600242B7D2BB1AB68B34202D1204624
:10575000FFF7EAFE01340A2C05F11805F2D170BDFD
:10576000443E00202DE9F047804686B00C4649B9FA
:10577000464B474947484FF4227206F0A1FB06B05A
:10578000BDE8F08745682B88B3F5807F08D12B7979
:10579000062B05D16B79042B02D16B88082B03D023
:1057A000404601F029FDEAE74E68D5F80E30059332
:1057B000AB6916B19B1B5E425E4194F82430002E0B
:1057C00014BF4FF001094FF00209062B05F108073D
:1057D00006D02E4B30492F4840F2AB1206F070FB3A
:1057E000059800283CD0214600F095FC8246B8BBC5
:1057F000059B03F0F003E02B32D0494605A8FFF7E4
:1058000013FF00282CDB254B182202FB00F103EBD1
:10581000010E4FF0020C8EF814C04FF00C0CCEF8B5
:10582000084012FB00C23868985003EB020CBA889B
:10583000ACF8042053F80190AEF812A0B9F1000FB3
:105840000ED043F801A04FF40063009304F1250249
:105850003B464946204605F0DFFB484601F0CCFCBC
:10586000EB88B3F5807F9BD1002E99D00222039262
:1058700005AA04F125030292221D009201973A46DF
:1058800019462046FFF764FE8AE700BFBAD6000833
:10589000F1D6000887CD000824D60008443E002039
:1058A0001FB5024600F1250302910124054901912B
:1058B000043200920394044A1946FFF749FE04B0EB
:1058C00010BD00BF86ED00081AED0008F8B5134CB6
:1058D000002502260427227C6AB1E38901339BB2AA
:1058E000B3F5967FE38103D2012A0AD1042B0CD9A8
:1058F0002846FFF719FE01350A2D04F11804EAD1F4
:10590000F8BD032A06D12774F5E721466068FFF742
:10591000C7FFF0E7042AEED12674ECE7483E0020EA
:105920002DE9F043274D1446182202FB045285B09E
:10593000127D012A0646884606D8234B234924486F
:1059400040F2ED2206F0BCFA182101FB045906F1E1
:10595000250799F81430022B0DD1B9F81230B3F5A0
:105960008E7F17D9494604313046FFF799FF10B9A9
:10597000032389F81430182303FB04534FF4006207
:1059800000920C333A464146304605F045FB05B0DF
:10599000BDE8F083B3F5877FEDD304EB4403DB0070
:1059A00003F10C0204332B4402930A4B01930121AF
:1059B000331D039100932A443B4639463046FFF796
:1059C000C7FDD4E7443E0020BAD6000848D60008F8
:1059D00087CD000886ED00082DE9F347894680460B
:1059E0000146D9F80000164600F095FB0446002851
:1059F0005ED1D9F8003003F0F002E02A58D0002B35
:105A000056D001214846FFF70FFE051E53DB404FDD
:105A1000182303FB05731A7D1AB901241C75C3F8FA
:105A20000880182303FB05731B7D33B9394B3A49B2
:105A30003A4840F2C93206F043FA0CB9002E3CD184
:105A400049464046FFF72CFF002E38D102B0BDE892
:105A5000F087FBD1DFF8BC80DFF8C890DFF8BCA08E
:105A600034469CB9304601F085FD002E4CD0B0463E
:105A7000182303FB05F21C46B85808B101F0BCFB23
:105A800004FB05F3002047F80380DFE762892389E0
:105A90009A4208D1236833B143464FF47B7249469A
:105AA000504606F00DFA237B012B1ED12468D8E75F
:105AB0006FF00F00CAE72846C8E74FF0FF30182301
:105AC00003FB0572127D012AC3D9154A15700C22F9
:105AD00013FB05234FF4006200923B4408F12502BA
