:020000040800F2
:1000000000000320E90F0008890F00088B0F00088B
:100010008D0F00088F0F0008910F000800000000EE
:10002000000000000000000000000000930F000826
:10003000950F000800000000970F0008990F0008B6
:10004000391000083910000839100008391000086C
:10005000391000083910000839100008391000085C
:10006000391000083910000839100008391000084C
:10007000391000083910000839100008391000083C
:10008000391000083910000839100008391000082C
:10009000391000083910000839100008391000081C
:1000A000391000083910000839100008391000080C
:1000B00039100008391000083910000839100008FC
:1000C00039100008391000083910000839100008EC
:1000D00039100008391000083910000839100008DC
:1000E00039100008391000083910000839100008CC
:1000F00039100008391000083910000839100008BC
:1001000039100008391000083910000839100008AB
:10011000391000083910000839100008391000089B
:10012000391000083910000839100008391000088B
:10013000391000083910000839100008391000087B
:10014000391000083910000839100008391000086B
:10015000391000083910000839100008391000085B
:10016000391000083910000839100008391000084B
:10017000391000083910000839100008000000008C
:10018000391000083910000839100008391000082B
:10019000391000083910000839100008391000081B
:0C01A00039100008391000083910000860
:1001AC0010B5054C237833B9044B13B10448AFF3A5
:1001BC0000800123237010BD1000002000000000FF
:1001CC009410000808B5034B1BB103490348AFF367
:1001DC00008008BD000000001400002094100008EE
:1001EC0053B94AB9002908BF00281CBF4FF0FF3192
:1001FC004FF0FF3000F07AB9ADF1080C6DE904CE88
:10020C0000F006F8DDF804E0DDE9022304B07047E5
:10021C002DE9F0478C460D460446089E002B51D123
:10022C008A4217466DD9B2FA82FEBEF1000F0BD08E
:10023C00CEF1200C01FA0EF520FA0CFC02FA0EF7A6
:10024C004CEA050C00FA0EF44FEA174A250CBCFBDD
:10025C00FAF81FFA87F90AFB18CC45EA0C4508FB9B
:10026C0009F3AB420AD9ED1908F1FF3280F0238172
:10027C00AB4240F22081A8F102083D44ED1AA4B231
:10028C00B5FBFAF00AFB105544EA054400FB09F9EA
:10029C00A14509D9E41900F1FF3380F00A81A14589
:1002AC0040F2078102383C44A4EB090440EA0840C0
:1002BC000021002E61D024FA0EF400233460736008
:1002CC00BDE8F0878B4207D9002E54D0002186E878
:1002DC0021000846BDE8F087B3FA83F1002940F00D
:1002EC008E80AB4202D3824200F2FA80841A65EB14
:1002FC0003050120AC46002E3FD086E81010BDE867
:10030C00F08712B90127B7FBF2F7B7FA87FEBEF1F7
:10031C00000F34D1EB1B3A0C1FFA87FC0121B3FB05
:10032C00F2F8250C02FB183345EA03450CFB08F3E5
:10033C00AB4207D9ED1908F1FF3002D2AB4200F203
:10034C00D1808046ED1AA3B2B5FBF2F002FB10553A
:10035C0043EA05440CFB00FCA44507D9E41900F161
:10036C00FF3302D2A44500F2B8801846A4EB0C046B
:10037C0040EA08409DE731463046BDE8F087CEF1B3
:10038C00200405FA0EF307FA0EF720FA04F83A0CDB
:10039C0025FA04F448EA0308B4FBF2F14FEA1845D5
:1003AC0002FB11441FFA87FC45EA044501FB0CF3E0
:1003BC00AB4200FA0EF409D9ED1901F1FF3080F0CF
:1003CC008A80AB4240F2878002393D44EB1A1FFA17
:1003DC0088F5B3FBF2F002FB103345EA034500FB52
:1003EC000CF3AB4207D9ED1900F1FF386FD2AB42D9
:1003FC006DD902383D44EB1A40EA01418FE7C1F157
:10040C00200722FA07F88B4005FA01F448EA0303A7
:10041C0020FA07FE4FEA134CFD404EEA040EB5FBE2
:10042C00FCF94FEA1E440CFB19551FFA83F844EAF9
:10043C00054509FB08F4AC4202FA01F200FA01FA94
:10044C0008D9ED1809F1FF3043D2AC4241D9A9F1DA
:10045C0002091D442D1B1FFA8EFEB5FBFCF00CFB94
:10046C0010554EEA054400FB08F8A04507D9E418DE
:10047C0000F1FF3529D2A04527D902381C4440EAA7
:10048C000940A4EB0804A0FB02894C45C6464D4626
:10049C0015D312D056B1BAEB0E0364EB050404FA73
:1004AC0007F7CB401F43CC40376074600021BDE898
:1004BC00F0871846F8E69046E0E6C245EAD2B8EB7B
:1004CC00020E69EB03050138E4E72846D7E74046FE
:1004DC0091E78146BEE7014678E702383C4445E7A0
:1004EC00084608E7A8F102083D442BE7704700BF17
:1004FC0038B50E4A0E4B054618784FF47A73B3FB99
:10050C00F0F31068B0FBF3F000F088F8044658B92B
:10051C000F2D09D8024629464FF0FF3000F04AF85B
:10052C00044B20461D6038BD012038BD0C00002056
:10053C00000000200400002008B50B4B1A6842F4A0
:10054C0000721A601A6842F480621A601A6842F4E7
:10055C0080721A60032000F01BF80020FFF7C8FF20
:10056C0000F0F0FC002008BD003C0240034A044BA4
:10057C0011681B780B441360704700BF2C000020DF
:10058C0000000020014B1868704700BF2C000020B1
:10059C00074AD36823F4E0631B041B0C43F0BF63CE
:1005AC00000243F4003300F4E0600343D36070476F
:1005BC0000ED00E0174B30B5DC68C4F30224C4F145
:1005CC000703251D042B28BF0423062D4FF001051E
:1005DC0005FA03F303F1FF338CBF033C00241940ED
:1005EC00A14005FA04F4013C2240002842EA010231
:1005FC004FEA0212ADBF00F1604000F00F00064B55
:10060C0000F56140B5BFD2B2D2B21A5480F80023C3
:10061C0030BD00BF00ED00E014ED00E00138B0F19A
:10062C00807F0AD2064B074A5860F02182F82310CB
:10063C000020072298601A6070470120704700BFA5
:10064C0010E000E000ED00E02DE9F04F85B00B6804
:10065C00DFF8C4816E4ADFF8C491019300234FF098
:10066C00010E019C0EFA03FE0EEA0406B64540F09C
:10067C00B6804C6824F01007022F16D14FEAD30A2B
:10068C0000EB8A0A03F0070BDAF820504FEA8B0BC9
:10069C004FF00F0C0CFA0BFC25EA0C0C0D6905FA4B
:1006AC000BF545EA0C05CAF820504FEA430A03251E
:1006BC00D0F800B005FA0AF5ED4304F0030C0BEA90
:1006CC00050B0CFA0AFC013F4CEA0B0C012FC0F88D
:1006DC0000C011D8876807EA050BCF6807FA0AFC37
:1006EC004CEA0B078760476827EA0E0EC4F3001725
:1006FC009F4047EA0E074760C7683D408F6807FA7E
:10070C000AF73D43C560E50069D54FF0000BCDF805
:10071C000CB0D8F844703F4D47F48047C8F844708B
:10072C00D8F8447007F480470397039F23F003071E
:10073C0007F1804707F59C3703F0030CD7F808A0A6
:10074C004FEA8C0C4FF00F0E0EFA0CFEA8422AEA60
:10075C000E0E4BD005F58065A84249D005F5806595
:10076C00A84247D005F58065A84245D005F58065BF
:10077C00A84243D0484543D005F50065A84241D076
:10078C0005F58065A8423FD005F58065A8423DD0AF
:10079C0005F58065A84214BF0A25092505FA0CF554
:1007AC0045EA0E05BD601568F74314F4803F0CBF95
:1007BC003D4035431560556814F4003F0CBF3D4077
:1007CC0035435560956814F4801F0CBF3D4035438C
:1007DC009560D568A40254BF3D403543D5600133C4
:1007EC00102B7FF43CAF05B0BDE8F08F5D46D5E72C
:1007FC000125D3E70225D1E70325CFE70425CDE773
:10080C000525CBE70625C9E70725C7E70825C5E772
:10081C00003C01400000024000380240001402403D
:10082C000AB1816170470904FBE7436931EA0303AC
:10083C0008BF0904816170472DE9F341044618B9DA
:10084C00012002B0BDE8F0810368DD0710D42368F5
:10085C00980758D423681A0700F19A8023685B071D
:10086C0000F1B880A269002A40F019810020E8E765
:10087C00A64B9A6802F00C02042A07D09A6802F080
:10088C000C02082A0AD15B68590207D59F4B1B68DA
:10089C009A03DCD56368002BD9D1D1E763689B4DF3
:1008AC00B3F5803F11D12B6843F480332B60FFF7F5
:1008BC0069FE964D06462B689B03C8D4FFF762FE73
:1008CC00801B6428F7D90320BBE7B3F5A02F04D114
:1008DC002B6843F480232B60E5E72A6822F48032EE
:1008EC002A602A6822F480222A60002BDFD1FFF7CD
:1008FC0049FE06462B689F03A9D5FFF743FE801BD4
:10090C006428F7D9DFE7814B9A6812F00C0F07D0F7
:10091C009A6802F00C02082A11D15B685E020ED4B0
:10092C007A4B1A68950702D5E268012A88D11A68B1
:10093C00216922F0F80242EAC1021A608AE7E268F1
:10094C00734BB2B101221A60FFF71CFE6F4D0646C5
:10095C002B68980707D52B68226923F0F80343EA24
:10096C00C2032B6076E7FFF70DFE801B0228EFD940
:10097C00A9E71A60FFF706FE644D06462B68990737
:10098C007FF568AFFFF7FEFD801B0228F6D99AE7CA
:10099C006269604B7AB101221A60FFF7F3FD5B4D7F
:1009AC0006466B6F9F073FF559AFFFF7EBFD801BBA
:1009BC000228F6D987E71A60FFF7E4FD534D064687
:1009CC006B6F98077FF54AAFFFF7DCFD801B0228A1
:1009DC00F6D978E74D4B1A6C12F0805228D101925F
:1009EC001A6C42F080521A641B6C03F08053019312
:1009FC00019B0126484D2B68D9051BD5A368434D97
:100A0C00012B27D12B6F43F001032B67FFF7BAFDA6
:100A1C003E4D074641F288382B6F9B0739D5002E87
:100A2C003FF420AF394A136C23F08053136419E759
:100A3C000026DFE72B6843F480732B60FFF7A2FDE1
:100A4C0007462B68DA05D9D4FFF79CFDC01B02289A
:100A5C00F7D938E7052B04D12B6F43F004032B6730
:100A6C00D0E72A6F22F001022A672A6F22F00402D3
:100A7C002A67002BCAD1FFF785FD41F2883807465B
:100A8C002B6F9807CBD5FFF77DFDC01B4045F7D9E1
:100A9C0019E7FFF777FDC01B4045BDD913E71B4D88
:100AAC00AB6803F00C03082B3FF4CAAE1B4E0023BB
:100ABC00022A336034D1FFF765FD07462B68990194
:100ACC001ED4226AE3691343626A43EA8213E26A20
:100ADC0043EA0263A26A0D4C5208013A43EA02430C
:100AEC006B6001233360FFF74DFD054623689A01C7
:100AFC003FF5BCAEFFF746FD401B0228F6D9E2E6F7
:100B0C00FFF740FDC01B0228D8D9DCE600380240B4
:100B1C0000004742800E4742007000406000474290
:100B2C00FFF730FD04462B689B017FF59FAEFFF766
:100B3C0029FD001B0228F6D9C5E600BF134908B5EC
:100B4C008B6803F00C03042B03D0082B03D0104844
:100B5C0008BD104808BD4A684B68496813F4800307
:100B6C0014BF0C480A48C1F3881118BF002302F0C7
:100B7C003F02A1FB0001FFF733FB044B5B68C3F39F
:100B8C00014301335B00B0FBF3F008BD00380240B9
:100B9C000024F40000127A002DE9F0410D460446C1
:100BAC0010B90120BDE8F081444B1A6802F00F0225
:100BBC008A4228D321688F072DD4C80740D43F4BD5
:100BCC001A6802F00F02954266D3226851076CD462
:100BDC00130707D53A4A2169936823F4604343EA23
:100BEC00C1039360FFF7AAFF354B364A9B68C3F3EA
:100BFC000313D35CD840344B18600020FFF778FC0B
:100C0C000020BDE8F081CAB21A701B6803F00F0314
:100C1C009942C6D1CEE72A4B11F0040F1EBF9A6839
:100C2C0042F4E0529A600E0742BF9A6842F4604266
:100C3C009A609A68A06822F0F00202439A60BCE7BE
:100C4C0062681F4B012A1DD11B6813F4003FA8D00A
:100C5C001B4EB36823F003031343B360FFF792FCFE
:100C6C0041F288380746B368626803F00C03B3EBB3
:100C7C00820FA4D0FFF786FCC01B4045F3D903209C
:100C8C00BDE8F081911E01291B6802D813F0007F8A
:100C9C00DDE713F0020FDAE7EAB21A701B6803F013
:100CAC000F039D427FF47DAF8FE70549E0688B68A9
:100CBC0023F4E05303438B608AE700BF003C0240FF
:100CCC0000380240AC1000080C00002010B594B0A5
:100CDC003022002108A800F0CFF90021142203A82B
:100CEC0000F0CAF90024184B01941A6C42F080529F
:100CFC001A641B6C154A03F080530193019B0294F8
:100D0C00136823F4404343F48043136013680E9438
:100D1C0003F440430293029B0223089301230B9399
:100D2C0008A810230C93FFF787FD0F23039321468C
:100D3C004FF4805303A80494059406930794FFF78B
:100D4C002BFF14B010BD00BF0038024000700040F3
:100D5C0080B58CB0FFF7F0FBFFF7B8FF1422002131
:100D6C0007A800F089F900246E4B01941A6B6E48A9
:100D7C0042F004021A631A6B02F004020192019A07
:100D8C0002941A6B42F080021A631A6B02F0800212
:100D9C000292029A03941A6B42F001021A631A6BC4
:100DAC0002F001020392039A04941A6B42F00202BD
:100DBC001A631A6B02F002020492049A05941A6BDD
:100DCC0042F008021A631A6B02F008020592059AA7
:100DDC0006941A6B42F040021A631B6B03F040033B
:100DEC002246069344F28101069BFFF719FD224629
:100DFC0040214E48FFF714FD4FF400594C4B4D4821
:100E0C00089307A9022603250B270994CDF81C90FB
:100E1C00FFF71AFC322307A9464807930896099452
:100E2C000A950B97FFF710FC862307A942480793F6
:100E3C00089609944FF001080A950B97FFF704FCEC
:100E4C0044F2810307A93848079309940A94CDF812
:100E5C002080FFF7F9FB07A9334808960994CDF8D1
:100E6C001C900A950B97FFF7EFFB4FF44073079319
:100E7C0007A907233148089609940B930A95FFF7A5
:100E8C00E3FB402307A92948079309940A94CDF85A
:100E9C002080FFF7D9FB802307A9244807930894E7
:100EAC000994FFF7D1FB4FF4E853079307A90A23E2
:100EBC002148089609940B930A95FFF7C5FB4FF44C
:100ECC00007307A91C48079308940994FFF7BCFB0F
:100EDC004FF4205307A915480896099407930A95CF
:100EEC000B97FFF7B1FB04F18044154E04F5013468
:100EFC00356855B1204600224FF48041FFF790FC35
:100F0C0080212046FFF791FCF2E7204601224FF4A6
:100F1C008041FFF785FC2A4680212046FFF780FCA4
:100F2C00E6E700BF0038024000040240001802400F
:100F3C00000031100008024000000240000C02408A
:100F4C000800002082B00C4B002100915A6C42F436
:100F5C0080425A645A6C02F480420092009A0191C9
:100F6C001A6C42F080521A641B6C03F0805301938C
:100F7C00019B02B0704700BF003802407047FEE78B
:100F8C00FEE7FEE7FEE7704770477047FFF7EEBAE3
:100F9C000F49D1F8883043F47003C1F888300D4BF9
:100FAC001A68002042F001021A6098601A6822F058
:100FBC00847222F480321A60074A5A601A6822F44A
:100FCC0080221A60D8604FF000638B60704700BFBE
:100FDC0000ED00E00038024010300024DFF834D07F
:100FEC00002103E00C4B5B58435004310B480C4B75
:100FFC0042189A42F6D30B4A02E0002342F8043B13
:10100C00094B9A42F9D3FFF7C3FF00F011F8FFF731
:10101C009FFE704700000320CC1000080000002049
:10102C00100000201000002030000020FEE700001F
:10103C0070B50D4E0D4CA41BA4100025A54209D172
:10104C000B4E0C4C00F020F8A41BA4100025A5425C
:10105C0005D170BD56F8253098470135EEE756F8A6
:10106C00253098470135F2E7C4100008C410000879
:10107C00C4100008C810000802440346934200D173
:10108C00704703F8011BF9E7F8B500BFF8BC08BCC2
:10109C009E467047F8B500BFF8BC08BC9E4670472A
:1010AC00000000000000000001020304060708090C
:0810BC0060F1FF7F010000005C
:0410C400D10100084E
:0410C800AD0100086E
:1010CC000100000010000000010000000024F400EA
:0400000508000FE9F7
:00000001FF
